:020000040000FA
:040FC000A2FFFFF796
:020000040000FA
:10200000A87300204D21000055210000119100000F
:1020100000000000000000000000000000000000C0
:102020000000000000000000000000005921000036
:1020300000000000000000000B2100000D2901003D
:102040005F2100005F2100005F2100005F21000090
:102050005F2100005F210000256400005F21000077
:10206000716400000D34010089340100E93401007D
:1020700051350100B135010011360100BD290100C3
:10208000412A0100C52A01000D2B01005F2100003B
:102090009DCC0000B59200005F2100005F21000090
:1020A0005F2100005F2100005F2100007136010008
:1020B0005F2100005F2100005F2100005F21000020
:1020C0000348854600F07EFE00480047796901001C
:1020D000A8730020084B19680868203080F309882D
:1020E000022080F31488BFF36F8F3FBCAE4608BC5C
:1020F00004BC62B6184700001C010020EFF31080FA
:1021000072B6704780F310887047EFF309800E4B6A
:102110001A6820381060F0C044464D4656465F4667
:10212000F0C008B572B616F07FF862B60CBC116844
:1021300008681030F0C8A046A946B246BB4680F3F6
:1021400009882038F0C818471C010020044880473F
:1021500004480047FEE7FEE7FEE7FEE7FEE7FEE78E
:10216000B9290100C120000030B50B46014600200E
:102170002022012409E00D46D5409D4205D31D468D
:102180009540491B2546954040191546521E002D85
:10219000F1DC30BD70B500242546002801DA0124A9
:1021A0004042002901DA01254942FFF7DDFFAC4238
:1021B00000D04042002C00D0494270BD38B50446E2
:1021C000C0681821401E4843A16840183C2148437C
:1021D000616840183C2148432168451860690C211A
:1021E0004843216940186921C900401A3021FFF78E
:1021F000D1FF114A50434219084600921A2902DBC6
:102200000E49511800910C21FFF7C4FF0C4A5043AE
:10221000009A801800900B4806E0491E425C074B6C
:102220005A43009BD21800920029F6DC21466846EA
:1022300000F07EFC009838BD801F860780510100A9
:102240008033E1015DB9010010B5431A934209D210
:102250008318881803E0401E01785B1E1970521E17
:10226000F9D210BD03460B439B0703D009E008C910
:10227000121F08C0042AFAD203E00B780370401C36
:10228000491C521EF9D210BDD2B201E00270401CAE
:10229000491EFBD270470022F6E710B513460A46E6
:1022A00004461946FFF7F0FF204610BD421E537842
:1022B000521C002BFBD10B781370491C521C002BB5
:1022C000F9D1704730B505462A460B4610781C7880
:1022D000521C5B1C002801D0A042F7D0002C03D078
:1022E000002802D06D1CEFE7284630BD10B504462B
:1022F00005E00B780370401C002B00D0491C521ED7
:10230000F7D2204610BDCAB2401E4178401C8A4216
:1023100002D00029F9D100207047421C0178401CEE
:102320000029FBD1801A704730B5044600200346CF
:1023300000E05B1C934203D2E05CCD5C401BF8D014
:1023400030BD30B505460020034600E05B1C9342DB
:1023500005D2EC5CC85C201A01D1002CF6D130BD4E
:1023600070B5104D002800D12868002414E00A46FA
:1023700002E09E4203D0521C1378002BF9D1DAB24E
:10238000224307D0002B06D0002C04D0002101707E
:10239000401C04E00446401C0678002EE7D128606B
:1023A000204670BD740100200321001D401E0378EB
:1023B00012021A43491EF9D51046704703460322FC
:1023C0000870000A491C521EFAD5184670470000D2
:1023D0000FB400B58DB009900B9010A900200091AA
:1023E000C0430A9000200C900648069006480790CB
:1023F0006A4609A80F9900F0DBFB0DB008BC04B0D9
:1024000018470000D12B0000F12B0000FFB5002081
:1024100083B0009050680190916914460026976837
:102420000498884705460C990698084305D009E0AA
:10243000A169761C049888470546216A2846884782
:102440000028F5D1681C03D00198C00704D017E01C
:102450000020C04307B0F0BD2068011D2160006866
:1024600000900DE00198C00704D100980570009815
:10247000401C0090A169761C7F1E04988847054681
:10248000002F1CDD681C1AD0069800280FD0E81712
:10249000C00E401941118A000699400951184001A7
:1024A0002A1A0968012090400142DBD107E00C980C
:1024B0000028D7D1216A284688470028D2D0E16970
:1024C000049888470C98002807D1002E05DD019854
:1024D000C00702D1009800210170A068B84204DD55
:1024E0000C98002804D0002F02D00120C043B1E78F
:1024F0003046AFE770B5064613F03EF9046805466E
:102500000A220021304600F085FB2C6070BDF8B532
:1025100002464A40D40F42004B0052085B089A42E0
:1025200002D20246084611464A0023D0C30D4A0093
:10253000DDB2120EAD1A202D35DA49020126490A04
:10254000F6058A19002C00D0524220214F1B11465B
:10255000B9402A411018C20D9A4221D0002C17D040
:10256000012D08DCDA05801AD20F8019D207DBB200
:1025700000F090FBF8BDDA05801A012340001B062D
:10258000C01880185A428018CA0F1043490007E04B
:102590004908C2071143DA05801A801940088018DB
:1025A00000F070FBF8BD61000122511A001BF7E733
:1025B0000122D2075140AAE70122D2075040A6E7E4
:1025C000024670B54A40D30FDB0740002DD04A00C9
:1025D0002AD0010E140E000212020919400A520AF2
:1025E0008418E50104465443000A120A2E0450439D
:1025F000A4194219200CC543AA18120C0125AD03D9
:10260000521C521912047F39240400D0521C10436A
:1026100001D44000491EC2B20C06C0092018401C5B
:102620004008802A02D003E0002070BD400840002E
:10263000002900DA0020184370BD70B502464A40F8
:10264000D50F40004A00ED0740085208002814D07A
:10265000002A12D0C40DD30D41020120C005520240
:10266000490A520AE41A091812187D34914201D31A
:10267000641C00E04900002C01DA002070BD00233A
:10268000914201D3891A0343400849000028F7D139
:1026900000290AD0914202D10121C90705E09142E7
:1026A00001D2012101E00121C943E005C018401910
:1026B00000F0E8FA70BD0000F0B507460846584043
:1026C00087B0C00F049048000E46590040084908E2
:1026D000BC1A884105D2384631461E4617460B467D
:1026E00002465800400810434CD0300D039040057E
:1026F0005900400D490D0590401A0290402872DAA9
:1027000018030121000B0905084301900498009269
:10271000002805D001995242002088410092019082
:10272000029840210A1A0199009800F0C5F905465F
:102730000C466B4607CB00F0E0F9C0197141039AD3
:102740000E0D0023D71756401A467A40164344D040
:10275000049A002A2DD0029A012A039A15DC120548
:10276000C01A914101263605001C7141D20F059E09
:10277000D2070093019202962A46234600F0D0FA2F
:1027800007B0F0BD38463146FAE71605224A0F4633
:10279000B218C01AB74101210905001C4F410018A9
:1027A0007F41114618187941E20F10436D196441B9
:1027B00013E0E2076D0815436408C2071443039A47
:1027C00001261205C01A91413605001C7141CE0741
:1027D000400830434908C01851412A46234600F0BA
:1027E00092FACDE7FFE7049801224000C117121AC0
:1027F00000238B4104983146C417381AA141EEE7F3
:1028000030B40124E407634030BC55E730B4012400
:10281000E407614030BC4FE70000E0FFF0B51FB4B3
:1028200088B00B990998002448400999C00F4900C5
:1028300049080991C0070B990090490049080B917C
:1028400009990898A64608431CD00B990A98084392
:1028500018D0099801244000420D4800410D099804
:1028600024050003000B204309900B980003000B84
:1028700020430B9050181C49401800220190144628
:10288000104605E0002001460DB0F0BD032801DA36
:10289000034600E003239C46C11A0AAE0AE05F002B
:1028A00008ADED5B4F00F75B7D430027AA187C4124
:1028B000491C5B1E6145F2DD410004AB5A52210404
:1028C000120C0A43240C401C0828DFDB01980290FC
:1028D0000099704601910090059B049A079906980B
:1028E00000F01EFAD0E700000DFCFFFFC217C10F79
:1028F000504010B54018CA079623002100F0CAF9CD
:1029000010BD10B500229623114600F0C3F910BD8A
:102910000EB5C217C10F5040CA0740180021054B21
:102920000293019200910A460B4600F0F9F903B0B8
:1029300000BD000033040000410040020122400AB3
:10294000D205090E80187F2901DA002070479629E8
:1029500003DC9622511AC840704796398840704768
:1029600070B5CD0F4A0009030123090B1B0519435C
:102970000B4BED070024520D9A4201DA002070BD86
:10298000074B34339A4203DC9A1A00F0A5F802E0B0
:102990000449511888402C43F1D0404270BD0000DA
:1029A000FF030000CDFBFFFFC20FD207400040082D
:1029B0000BD0C10D0723DB01C91840020905400AED
:1029C0001143C20840071143704700200146704779
:1029D00010B5002904DB0124E40740428C41214664
:1029E000002B04DB1C460123DB075242A3418B4230
:1029F00000D1824210BD0000CB0FDB07490010B5AB
:102A0000490802460A4307D00A0D07240903E401D6
:102A1000090B121B002A01DC002010BDC900440F65
:102A20000C43C100E018D205801800F02BF910BD4E
:102A30000122D207002800DB101A002900DB511AFE
:102A4000814270470122D207002800DB101A0029BA
:102A500000DB511A88427047F0B51FB406460020CB
:102A600082B005464024019100901BE00199224666
:102A70000F46304600F030F8049A059B801A9941C1
:102A800010D310461946224600F016F8361A8F4128
:102A90000197224601200021009F00F00DF8381810
:102AA0004D4100902046641E0028DFDC019B009809
:102AB0002946324607B0F0BD10B5202A04DB014696
:102AC000203A9140002010BD914020239C1A0346DB
:102AD000E3401943904010BD10B5202A04DB08469E
:102AE000203AD040002110BD0B46D340D0402024D6
:102AF000A21A91400843194610BD10B5202A06DBE2
:102B0000CB170846203A1041C1170B4306E00B468D
:102B10001341D0402024A21A91400843194610BD09
:102B200010B5024900F004F810BD00007C630020DD
:102B300070B50C4600683C21FFF716FB21603C2174
:102B4000FFF712FB61601821FFF70EFB0546A1603D
:102B50000721001DFFF708FBA1610F48A900081815
:102B60000E49FFF701FB0246443288086261E061CA
:102B70003B2802D3910700D0401C0021084B0A4695
:102B80002161995C814203D8401A521C2261F8E706
:102B9000401CE060204670BD6C0B0000B5050000D5
:102BA00069B901000268137851180160184670472E
:102BB00010B5D160044951610449116200211161CD
:102BC000114600F01FF910BDA52B0000F12D0000EB
:102BD0004268002A08D001680B78491C002B03D0FA
:102BE000521E06C0184670470121C160881E7047FA
:102BF0004268002A0BD0C3680168002B07D18368A4
:102C00008B4204D0491E521C06C000207047002091
:102C1000C0437047F7B5009C0F4600262578641C1A
:102C2000002D05D000F0E0F80068405DC007F5D148
:102C30002B2D02D02D2D18D0641E39462046029A25
:102C400000F07CFA002F04D03968A14201D100992C
:102C500039607105022400290BDA4042002803DDA7
:102C600012F08AFD0460A007FEBD01208002064329
:102C7000E3E70028F8DA12F07FFD04600048FEBDAB
:102C8000FFFFFF7F002904DA401C490001D1400802
:102C90004000704770B40024050C05D110240004D6
:102CA00002D1002921D01124050E01D100020834DF
:102CB000050F01D10001241D850F01D18000A41C46
:102CC000002801DB4000641C002908D020252E1BB1
:102CD0000D46F540A14000D00121294308430106DB
:102CE0001B1B000ADB1D02D5002070BC7047DB05F2
:102CF000181880180029F8DA401C4900F5D170BC7A
:102D000040084000704710B5002B08DA0024401C32
:102D1000614192185B411A4301D14008400010BD47
:102D2000F0B51FB482B005460C0003D0084612F07F
:102D3000FDFC02E012F0FAFC203002460090214631
:102D40002846FFF7B9FE049B059A04460F46184330
:102D50001143084314D0184610431BD0009840215B
:102D60000A1A18460599FFF7B7FE05460E46009A5F
:102D700005990498FFF7A0FE084305D0012004E060
:102D80002046394607B0F0BD0020C11705430E4369
:102D90002C43374300990E986305401A7905E40ADD
:102DA00000220C43FD0A0A3002D500200146E9E763
:102DB0000105101969410C9C0D9D00196941FFF72F
:102DC000A2FFDFE7064C0125064E05E0E36807CCCD
:102DD0002B430C3C98471034B442F7D3FFF774F9F7
:102DE0009CBF0100BCBF010000487047F8B901005A
:102DF00010B50446FFF7F8FF0068005DC007C00F7C
:102E000010BD0000F3B58DB000200A9001200B909A
:102E1000002608460C300C46099062690121099889
:102E2000904705002ED0252D2DD0216A88470028F7
:102E300018D06269012109989047216A88470028C3
:102E4000F7D1411E62690998904700E0761CA1699C
:102E50000D988847216A88470028F7D1E1690D98C5
:102E60008847DAE7A1690D9888470746A84201D14B
:102E7000761CD2E7E1690D9888477F1C02D10A9839
:102E8000002877D049E1002762693D463946099814
:102E900090472A280CD162690121099890470125A1
:102EA00006E00A214F433F18303FEBD41020054382
:102EB0006269012109989047014630390A2903D2F5
:102EC0009B498F42DEDCECE7E90600D4994F6C2881
:102ED0000AD04C2810D0682824D06A282ED0742814
:102EE0000CD07A280AD00DE0626901210998904738
:102EF0006C2823D004211CE02020054362690121B5
:102F000009989047A760656065284FD026DC58284F
:102F100039D01ADC452849D012DC252834D0412884
:102F2000B0D143E06269012109989047682802D036
:102F300008210D43E6E70120C002DEE70220DCE7BE
:102F4000462833D047282CD130E05B2870D0612848
:102F50002CD063286CD0642823D161E06F284FD037
:102F600009DC662822D0672820D0692826D06E2860
:102F700017D12EE0CDE070284DD073286FD0752882
:102F80004ED078280DD154E0A1690D9888470546A8
:102F9000252800D16CE7E1690D9888476D1C00D1A8
:102FA0006DE7BAE00A224CE00A2252E001202346F3
:102FB0006A46C0430D99C046C046A3E0284640215A
:102FC00008436060A807234601D5002239E00022AB
:102FD0003FE0E80700D020E72068011D216000687D
:102FE000290501D5067018E7290701D5068014E7E1
:102FF000A90703D5F117066041600EE706600CE7EC
:103000002846402108436060A807234601D50822CE
:1030100017E008221DE0484928460840606016E095
:103020002846402108436060A8072346BCD5B9E77D
:1030300015E02846402108436060A80707D52346CD
:1030400010220120C0430D99C046C0465AE02346D5
:1030500010220120C0430D99C046C04652E0002115
:103060000C910B460091632802D05B2807D043E007
:10307000E80601D40120A060012000903CE06269D4
:103080000121099890475E2805D101200C90014646
:103090006269099890472169002906D10B4601AA67
:1030A0008F00491CD3510829FADB002835D021694B
:1030B00000290ED1C117C90E09184A11930001AA9F
:1030C0009A1849094901411A0120136888400343AD
:1030D000136062690121099890475D28E5D10C9839
:1030E000002808D0002001AB81005A58401CD24370
:1030F0005A500828F8DB01AB01202246C0430D9945
:10310000FFF784F900280ADA401C06D10B98002842
:1031100003D00020C0430FB0F0BD0A98FBE7E907D9
:1031200002D10A99491C0A91361800200B9074E6C6
:10313000CCCCCC0CFFFFFF7FF1F7FFFFF7B582B0DF
:10314000029C00272078641C15460197302802D085
:10315000002D15D015E020780127641C782804D0B4
:10316000582802D0002D09D00BE0002D01D0102DE1
:1031700007D1002710252078641C02E0082500E014
:103180000A250026009610E00099012769430818D7
:10319000020C294680B2714300908E183804864292
:1031A00001D3012001902078641C294600F019F811
:1031B0000028E9DA0398002805D0002F01D0641E0A
:1031C00000E0029C04600198002806D012F0D4FAB6
:1031D00002210160C81E05B0F0BD0099300408430B
:1031E000F9E73A2800D23038202302469A43412A90
:1031F00001D310463738884201D30020C0437047BE
:1032000070B58C180578401C6B075B0F01D10378F3
:10321000401C2A1106D10278401C03E006780E708B
:10322000401C491C5B1EF9D12B0705D40023521EFC
:103230000DD40B70491CFAE70378401CCB1A921C82
:1032400003E01D780D70491C5B1C521EF9D5A1428C
:10325000D8D3002070BD0000F7B587B003460998A9
:103260001D782D065E78360475409E7836027540CE
:10327000DE7875400668754006951D792D065E79E5
:10328000360475409E7936027540DE797540466891
:10329000754005951D7A2D065E7A360475409E7A36
:1032A00036027540DE7A75408668754004951D7B50
:1032B0002D065E7B360475409E7B36027540DE7BB4
:1032C0007540C66875400395F02509982D586D1016
:1032D000009500BF069D2D0EAD00CE4E7559059E82
:1032E0003602360EB600CC4FBE597540049E3604E9
:1032F000360EB600C94FBE597540039E3606B60D50
:10330000C74FBE5975402A4606697240059D2D0E6D
:10331000AD00C04E7559049E3602360EB600BE4F43
:10332000BE597540039E3604360EB600BB4FBE59DB
:103330007540069E3606B60DB94FBE5975402C46EF
:1033400046697440049D2D0EAD00B24E7559039E22
:103350003602360EB600B04FBE597540069E360492
:10336000360EB600AD4FBE597540059E3606B60DF9
:10337000AB4FBE597540866975400295039D2D0E71
:10338000AD00A44E7559069E3602360EB600A24F09
:10339000BE597540059E3604360EB6009F4FBE5985
:1033A0007540049E3606B60D9D4FBE597540C669E0
:1033B000754001952030009D6D1E0095002D00D1B7
:1033C00068E0150EAD00934E75592602360EB60014
:1033D000914FBE597540029E3604360EB6008F4F8F
:1033E000BE597540019E3606B60D8D4FBE597540CB
:1033F000066875400695250EAD00864E7559029EED
:103400003602360EB600844FBE597540019E360412
:10341000360EB600814FBE5975401606B60D804F68
:10342000BE597540466875400595029D2D0EAD004C
:10343000784E7559019E3602360EB600764FBE594B
:1034400075401604360EB600744FBE5975402606F8
:10345000B60D734FBE597540866875400495019D41
:103460002D0EAD006B4E75591602360EB6006A4F22
:10347000BE5975402604360EB600684FBE597540D9
:10348000029E3606B60D664FBE597540C668754039
:1034900003951FE700BF150EAD00604E75592D0E48
:1034A0002D062602360EB6005D4FBE59FF273F049B
:1034B0003E407540029E3604360EB600554FBE594A
:1034C000FF273F023E407540019E3606B60D524F23
:1034D000BE5D7540066875400695069D2D0E0D7003
:1034E000069D2D022D0E4D70069D2D042D0E8D7006
:1034F000069DCD70250EAD00484E75592D0E2D063A
:10350000029E3602360EB600454FBE59FF273F04D5
:103510003E407540019E3604360EB6003D4FBE5902
:10352000FF273F023E4075401606B60D3A4FBE5D7E
:103530007540466875400595059D2D0E0D71059DDC
:103540002D022E0E4E71059D2D042E0E8E71059DA1
:10355000CD71029D2D0EAD00304E75592D0E2D06EC
:10356000019E3602360EB6002D4FBE59FF273F048E
:103570003E4075401604360EB600264FBE59FF2752
:103580003F023E4075402606B60D234FBE5D754096
:10359000866875400495049D2D0E0D72049D2D02C4
:1035A0002E0E4E72049D2D042E0E8E72049DCD7231
:1035B000019D2D0EAD00194E75592D0E2D061602CA
:1035C000360EB600164FBE59FF273F043E407540E9
:1035D0002604360EB6000F4FBE59FF273F023E406D
:1035E0007540029E3606B60D0B4FBE5D7540C6682F
:1035F00075400395039D2D0E0D73039D2D022E0E18
:103600004E73039D2D042E0E8E73039DCD730AB051
:10361000F0BD000064970100649B0100649F0100FD
:1036200064A30100F7B503460C460025002B02D029
:103630000298002802D10020C043FEBD802C08D093
:10364000C02C06D0FF200130844202D00120C043AC
:10365000F3E70299802C04D10A260298803006678D
:103660000AE0C02C04D10C2602988030066703E0E3
:103670000E26029880300667187800065E783604B9
:1036800070409E7836027040DE787040086018798D
:1036900000065E79360470409E7936027040DE790D
:1036A00070404860187A00065E7A360470409E7A50
:1036B00036027040DE7A70408860187B00065E7BC0
:1036C000360470409E7B36027040DE7B7040C860DE
:1036D000802C39D137E0CA681602360EB600894F01
:1036E000BE59360E3606086870401604360EB6000F
:1036F000854FBE59FF273F043E4070401606B60D69
:10370000824FBE59FF273F023E407040160EB60062
:103710007F4FBE5D7040AE007E4FBE597040086165
:103720000E694868704048614E69886870408861D9
:103730008E69C8687040C861681C05460A2801D1B6
:1037400000207AE71031C6E7187C00065E7C36045C
:1037500070409E7C36027040DE7C70400861187DAF
:1037600000065E7D360470409E7D36027040DE7D30
:1037700070404861C02C41D13FE04A691602360EC4
:10378000B600604FBE59360E360608687040160403
:10379000360EB6005C4FBE59FF273F043E407040D6
:1037A0001606B60D594FBE59FF273F023E407040E6
:1037B000160EB600564FBE5D7040AE00554FBE5956
:1037C000704088618E6948687040C861CE698868B9
:1037D000704008620E6AC86870404862681C0546FE
:1037E000082801D1002028E74E6A086970408862E5
:1037F0008E6A48697040C8621831BEE7187E0006BC
:103800005E7E360470409E7E36027040DE7E7040E2
:103810008861187F00065E7F360470409E7F360206
:103820007040DE7F7040C861FF200130844266D165
:1038300064E0CA691602360EB600324FBE59360E23
:103840003606086870401604360EB6002E4FBE5974
:10385000FF273F043E4070401606B60D2B4FBE5961
:10386000FF273F023E407040160EB600284FBE5D57
:103870007040AE00274FBE59704008620E6A48681B
:10388000704048624E6A8868704088628E6AC86874
:103890007040C862681C0546072801D10020CCE6AC
:1038A000CA6A160EB600174FBE59360E360608699C
:1038B00070401602360EB600134FBE59FF273F0464
:1038C0003E4070401604360EB600104FBE59FF271A
:1038D0003F023E4070401606B60D0D4FBE5D704073
:1038E00008630E6B4869704048634E6B886970408E
:1038F00088638E6BC8697040C863203199E70020E7
:103900009BE60000649F010064A30100649701002E
:10391000649B010064B801003EB500200290474856
:103920004088474988427DD002A806F0F9F904464C
:103930000021C9438842F6D040484088611E0841B2
:10394000C007C00F002878D1012C01D0022C09D16A
:10395000022004E0002182003A4B9950401C0C28C0
:10396000F8DB28E0032C03D0052C01D0062C09D16C
:10397000062004E000218200324B9950401C0C28A4
:10398000F8DB18E0042C09D1042004E000218200B7
:103990002C4B9950401C0C28F8DB0CE0072C03D171
:1039A00000202849C86206E0082C04D100202549DF
:1039B000C8628862086268460089FEF7A2FF054671
:1039C000601E204A294614F095FA1C484088611E62
:1039D00001228A4010431949488008460BF0AAF991
:1039E000401C00280ED100BF1748807D002808D059
:1039F00003F0E2FF0546154B154A294615A011F0C4
:103A000071FE00BF19490D48001D12F09DFC00BF5A
:103A10000D48807D00280FD003F0CEFF05460748F3
:103A2000408800E009E0094B1B1D094A2946009423
:103A300001900FA011F056FE00BF3EBD8C05002086
:103A4000FF0F0000440A0020081D0020BE030000F4
:103A5000618E01005831302025732025733A2825C6
:103A60006429206572722E0A00000000D40700202D
:103A70005831302025732025733A28256429206782
:103A8000756E202564206C6561726E3D25582E0A86
:103A900000000000FEB504460026E51CA278E11CEB
:103AA00017A008F02BFC00BF1B48807D00280FD01A
:103AB000681CFEF779FC074603F07EFF02906879E8
:103AC0007423164A0197009015A0029911F00AFE7E
:103AD00000BF284602F072FBC6B2E6700120A0705B
:103AE000A078C11C204604F053F8C1B2A278E01CB3
:103AF0008154A078021D214600200BF0CDFAFEBDB6
:103B0000426C7565436F737454656D706C61746558
:103B1000446F776E00000000081D00202C87010014
:103B20005831302025732025733A282564292063D5
:103B30006F73745F74656D706C617465206D6F6414
:103B4000653D25642C69643D25642E0A0000000053
:103B500070B5C2B0044601AD0335FF21053101A89F
:103B6000FEF799FB2C701448FEF71EFC0646691CF4
:103B7000FEF724FCEE216846017107214171052101
:103B800081718079C11C01A804F002F8C1B26846B5
:103B90008279C01D815468468079021D01A90020E8
:103BA0000BF07AFA68468079021D01A903A008F09B
:103BB000A5FB42B070BD0000211D0020426C756560
:103BC000436F737454656D706C61746552657100F8
:103BD000F0B5C1B000AD03350626FF2105316846BA
:103BE000FEF759FB2D48007E28702C481930FEF74F
:103BF000DBFB0746691CFEF7E1FB284818304079DB
:103C00006871264818304079022801D1042409E05F
:103C1000224818304079012804D120481830807992
:103C2000C000441C22461D491E31A81DFEF70CFB96
:103C30001A4840300179A81D015518486030C08FDE
:103C4000C2B2A81D611C425414486030C08F0212D9
:103C5000A81DA11C4254E01C301886B2EE21684613
:103C600001700621417086708078C11C684603F09F
:103C70008FFFC1B268468278C01C81546846807844
:103C8000021D694600200BF007FA68468078021D85
:103C9000694603A008F032FB41B0F0BD081D0020CA
:103CA000426C7565436F737454656D706C617465B7
:103CB00055706C6F6164000070B50546EC1C20788F
:103CC000002828D10822611C13A008F017FB621CF1
:103CD0000821012011F018FB0822611C1048FEF792
:103CE000B3FA01220B2189010D48263802F0FDFEAE
:103CF00000BF0B48801F807D002809D003F05CFEC8
:103D00000646FF23FA33074A314607A011F0EAFCC2
:103D100000BF0AF0FDFD70BD6964636F64653A0021
:103D20000E1D002092870100583130202573202578
:103D3000733A282564292072656769737465722057
:103D40007265626F6F742E0A00000000FEB50446B3
:103D5000E51C28780190A178284610F097FF0646C8
:103D6000E71C002E01D1012000E0002038700198EE
:103D700078700220A070A078C11C204603F008FFD4
:103D8000C1B2A278E01C8154A078021D2146002017
:103D90000BF082F9022E14D10A4807F071FE00BF21
:103DA0000948807D002809D003F006FE054B7F3BC3
:103DB000064A0146009006A011F094FC00BF0AF0EC
:103DC000A7FDFEBD25030000081D0020D8870100C7
:103DD0005831302025732025733A28256429207313
:103DE000797374656D2077696C6C207265626F6F92
:103DF000742E0A00F0B587B0054600200690EC1C32
:103E00003448807B20210840002814D000BF32486D
:103E1000807D002808D003F0CFFD06462F4B304AA6
:103E2000314630A011F05EFC00BF012128460BF0A6
:103E3000AFFB07B0F0BDA07A222833D000BF2648E0
:103E4000807D00281AD0201DFEF7AEFA06462046D7
:103E5000FEF7AAFA074603F0AFFD0590A17A607A53
:103E6000227A000210431D4BDB1D1D4A009702966B
:103E7000039101902848059911F034FC00BF201DE2
:103E8000FEF792FA0646A17A10F0E8FE03F08EFEE5
:103E90001049803108610F48807B102108430D498B
:103EA000887311E000BF0C48807D002809D003F022
:103EB00083FD0646094B0C33094A314617A011F021
:103EC00011FC00BF01200690284606990BF060FB0C
:103ED00000BFAEE708210020081D0020820200007C
:103EE000C48701005831302025732025733A2825D6
:103EF000642920B4EDCEF32CCDE2CDF8C9FDBCB6DB
:103F0000D6D02CCEDEB7A8BDF8D0D0C0B6D1C0C9AF
:103F1000FDBCB62E0A00000054BA01005831302012
:103F200025732025733A282564292066775F7665F6
:103F30007273696F6E20697320657175616C2C6393
:103F4000616E6E277420757067726164652E0A0059
:103F5000F0B587B00446E51C2F78681CFEF724FAFC
:103F6000069000BF3248807D002812D0681DFEF701
:103F70001BFA049003F020FD039006990498FF2398
:103F800083332C4A0097019102902B48039911F03A
:103F9000A9FB00BF681DFEF707FA024604903846E9
:103FA00006990AF011FB05900598002814D12348C2
:103FB0000088401E2149088000BF1D48807D0028E0
:103FC00009D003F0F9FCFF2389331A4A0146049013
:103FD0001BA011F087FB0FE000BF1548807D002873
:103FE00009D003F0E9FCFF238B33124A0146049009
:103FF0001EA011F077FB00BFE61C00207071711C41
:104000000698FEF7DBF937700620A070A078C11C77
:10401000204603F0BDFDC1B2A278E01C8154A07817
:10402000021D214600200BF037F807B0F0BD00005C
:10403000081D00207B870100A8BA01001C00002099
:104040005831302025732025733A282564292052C1
:10405000656D6F76655F5265636F72644F726465FC
:104060007220737563636573732E0A0058313020B4
:1040700025732025733A282564292052656D6F76B3
:10408000655F5265636F72644F726465722066612A
:10409000696C65642E0A000070B50446E51C6878FA
:1040A00000280FD10848007800280BD00748008866
:1040B000401C064908800FF06BF900200449086095
:1040C0000149087070BD0000290000201C0000207C
:1040D0002000002070B504460D466078030011F002
:1040E0003CFB17BB2029323B44BB59B3B7760DBB11
:1040F0008B627F83BBBBBBBB879FBB0000BF5748A6
:10410000807D002808D003F057FC0646544B554AE2
:10411000314655A011F0E6FA00BF2046FFF7CCFD6E
:104120009AE02A4621465CA008F0E8F820460CF008
:10413000D5FD91E02A4621465DA008F0DFF8204633
:1041400007F056FC88E02A4621465EA008F0D6F823
:10415000204600F0F1FA7FE02A46214661A008F0EF
:10416000CDF8204600F0A6FB76E003F01FFD644981
:10417000486000BF3948807D002809D003F01CFC4E
:104180000646374B1533374A31465EA011F0AAFA7E
:1041900000BF61E02A46214666A008F0AFF820463D
:1041A00000F08AF958E000BF2C48807D002809D033
:1041B00003F002FC06462A4B1C332A4A314665A00E
:1041C00011F090FA00BF2046FFF764FC44E02A4655
:1041D00021466EA008F092F8204600F05DF93BE021
:1041E000204600F05BFE37E0204600F017FE33E08B
:1041F00020460AF08DF82FE000BF1848807D002887
:1042000009D003F0D9FB0646154B2D33154A31462C
:1042100064A011F067FA00BF2046FFF73DFF1BE0E6
:1042200000BF0E48807D002809D003F0C5FB06467C
:104230000B4B31330B4A314668A011F053FA00BFE3
:104240002046FFF785FE07E02046FFF7D3FD03E099
:104250002046FFF77BFD00BF00BF70BD081D00209A
:10426000BA020000E787010058313020257320256D
:10427000733A2825642920426C756550726F746FFB
:1042800050726F6320646576207265676973746528
:10429000722061636B2E0A00426C756550726F74F8
:1042A0006F50726F63207368616B65207265710077
:1042B000426C756550726F746F50726F63206175D8
:1042C00074680000426C756550726F746F50726F45
:1042D00063207374617274206368617267696E67CA
:1042E00000000000426C756550726F746F50726F01
:1042F000632073746F70206368617267696E670012
:10430000800100205831302025732025733A28255C
:10431000642920426C756550726F746F50726F63C0
:1043200020686561727420626561742061636B2E20
:104330000A000000426C756550726F746F50726FA6
:10434000632072657120636F73742074656D706C87
:10435000617465005831302025732025733A282573
:10436000642920426C756550726F746F50726F6370
:1043700020636F73742074656D706C617465206464
:104380006F776E6C6F61642E0A000000426C756579
:1043900050726F746F50726F632072657120627219
:1043A00065616B005831302025732025733A28252C
:1043B000642920426C756550726F746F50726F6320
:1043C0002075706C6F616420686973746F727920F6
:1043D0006F726465722061636B2E0A005831302061
:1043E00025732025733A2825642920426C75655071
:1043F000726F746F50726F63206F726465722065A4
:104400006E737572652E0A0010B5C2B0FF210531BA
:1044100001A8FDF740FF01AC0334142214A120468B
:10442000FDF712FF102120460830FDF734FF0C2263
:1044300015A120460830FDF707FFEE2168460171FF
:104440000B214171182181718079C11C01A803F0F1
:104450009FFBC1B268468279C01D8154684680794D
:10446000021D01A900200AF017FE42B010BD000095
:104470004445564943455F434841524745525F438F
:104480004C5F584100000000393238363938343931
:10449000343834370000000010B50446002005F021
:1044A00022FF00200349087007F0C6F91D200AF01A
:1044B00053FC10BD8001002070B50446E51C681C4B
:1044C000FDF772FF06460748FDF76EFF864207D0EC
:1044D0000448FDF769FF002802D02878FFF778FB31
:1044E00070BD0000211D0020F0B595B0402102A84C
:1044F000FDF7D1FE02ACE71CFD1C0020019003F08B
:104500001DFB387003F032FA323078700C20B8702E
:10451000012630E02E70701E6E2148432549401858
:1045200001900198807800280ED001206870F0B2C8
:1045300003F0D2FA80B200900098FF2801DBFF2040
:1045400000E00098A87014E00020687012A93046BE
:1045500003F0B4FA10A8007A002806D105F00EFC8A
:10456000002806D00320687003E06878A870022055
:104570006870ED1C761C0C2ECCDDEE202070052022
:1045800060702720A070A078C11C204603F000FBBB
:10459000C1B2A278E01C8154A078021D21460020FF
:1045A0000AF07AFDA078021D214603A007F0A6FEBE
:1045B00015B0F0BD8C0C0020426C756553656E64BF
:1045C000486561727442656174000000FFB583B094
:1045D00004460E461746E51C701E6E2148431949D5
:1045E000401802902E706F700698A870002F08D1A6
:1045F00002984B30FDF7D8FEE91C0190FDF7DEFE76
:1046000003E0E91C0020FDF7D9FE0021E9712972C1
:104610000920A070A078C11C204603F0B9FAC1B2ED
:10462000A278E01C8154A078021D214600200AF0E7
:1046300033FDA078021D214603A007F05FFE07B0FE
:10464000F0BD00008C0C0020426C756553656E64F3
:1046500053746172744368617267696E6741636B1A
:1046600000000000F7B582B004460F46E51C781E36
:104670006E214843294946181320A0702F700498D2
:10468000687003F093FAA91C0190FDF797FE30467D
:1046900062304179027908021043A871000AE8717A
:1046A0005C20805D287230464B30FDF77DFE294648
:1046B00009310190FDF782FE00216973A97330462C
:1046C0004330417D027D08021043E873000A2874DC
:1046D000314662314A780B781102194308460A21A3
:1046E000FDF758FD81B26974090AA974A078C11C4C
:1046F000204603F04DFAC1B2A278E01C8154A078A4
:10470000021D214600200AF0C7FCA078021D2146A8
:1047100003A007F0F3FD05B0F0BD00008C0C0020F5
:10472000426C756553656E6453746F704368617253
:1047300067696E6741636B00FEB50746FC1C26780F
:10474000701E6E21484340494018019001988078BE
:10475000002815D00A22611C3C48FDF7E5FD002821
:104760000ED00A22611C01981830FDF7DDFD0028EB
:1047700006D100231A4631463846FFF727FFFEBD13
:1047800001F0E0FA002815D000BF3148807D0028F4
:1047900008D003F011F9AE232E4A014600902EA056
:1047A00010F0A0FF00BFEBB2012231463846FFF700
:1047B0000DFFE4E7304601F029FB051E15D000BFD0
:1047C0002348807D002808D003F0F6F8B523214A5D
:1047D000014600902BA010F085FF00BFEBB2012234
:1047E00031463846FFF7F2FEC9E7617B227B0902BA
:1047F000114308466421FDF7CDFCC1B22C48017677
:10480000E17A20388172E17B2030C176607C217CA6
:104810000002084326498883084620384672A07B58
:104820000090607B227B000210430146631C204AFB
:104830000E3A02200DF046F900231A46314638465A
:10484000FFF7C4FE00BF9AE78C0C0020DB9101004B
:10485000081D002041870100583130202573202594
:10486000733A2825642920486973746F72794F72EE
:104870006465724E756D20697320746F206D616E72
:10488000792E0A005831302025732025733A2825C7
:1048900064292063616C6C20436865636B537461A9
:1048A000727450617261206661696C2E0A000000AA
:1048B00088210020F8B50646F41C2078401E6E21A1
:1048C0004843324945182078002802D020780C2827
:1048D00016DD00BF2E48807D00280AD003F06CF85A
:1048E00007462078E1232B4A394600902AA010F091
:1048F000F9FE00BF217801223046FFF7B3FEF8BD74
:104900006878002814D100BF2148807D002808D095
:1049100003F052F80746E7231E4A394626A010F056
:10492000E1FE00BF217800223046FFF79BFEE6E75C
:104930000A2229461831601CFDF7F6FC002814D025
:1049400000BF1348807D002808D003F035F80746E3
:10495000ED23104A394621A010F0C4FE00BF217893
:1049600001223046FFF77EFEC9E716215C20415543
:1049700006215D20415520780DF026FA217800228D
:104980003046FFF76FFE00BFB9E700008C0C002037
:10499000081D002053870100583130202573202541
:1049A000733A2825642920706F72743D25642C6544
:1049B00072726F722E0A0000583130202573202544
:1049C000733A282564292067756E2069732069640D
:1049D0006C652C6572722E0A000000005831302080
:1049E00025732025733A28256429206F7264657227
:1049F00020697320646966662C6572722E0A000055
:104A000010B503F0D3F804460748007800280AD10F
:104A100006484069201AE1218900884203D906F03E
:104A20000BFF0248446110BD8001002008210020D6
:104A3000F0B5D7B00446FF21053116A8FDF72BFCD1
:104A4000442105A8FDF727FC217A68460176A17A62
:104A5000607A0902014368464176090A8176204658
:104A60003D30FDF7A1FC054612A90131FDF7A6FC7A
:104A7000A17B68468177217801750A22214623317E
:104A80002F30FDF7E1FB6178684641751022214621
:104A90000F311F30FDF7D8FB2046413041790079B6
:104AA0000902014310A84174090A81742046353077
:104AB000FDF77AFC054610A90131FDF77FFC204681
:104AC0003930FDF771FC054611A90131FDF776FC7F
:104AD00020462D30FDF768FC05460EA90131FDF793
:104AE0006DFCE1786846C17520463130FDF75CFC0D
:104AF00005460FA90131FDF761FC607B227B0102B5
:104B0000114368468183E17AC17620464130FDF742
:104B10004BFC054613A90131FDF750FC412205A9C4
:104B200016A80330FDF790FBEE2110A801760D21A9
:104B3000417641218176807EC11C16A803F028F8B9
:104B4000C1B210A8827E1B3081546846007D17498F
:104B5000087010A8807E021D16A900200AF09CFA99
:104B600000BF1348807D00281DD020463D30FDF752
:104B70001BFC054620463130FDF716FC0646204654
:104B80002D30FDF711FC074602F016FF0490207847
:104B9000FF235933074A0197029603950090064870
:104BA000049910F09FFD00BF57B0F0BD2900002010
:104BB000081D002064870100FCB9010010B53D20EC
:104BC000000304F0B7F908223D210903024804F06C
:104BD0007BF9002010BD000000000020F8B504465D
:104BE000E079012824D1254608352878002809D104
:104BF00001214248817301220B218901803801F093
:104C000074FF02E0732006F0F5FE00BF3B486038F9
:104C1000807D00280AD002F0CFFE06462878384B67
:104C2000384A3146009038A010F05CFD00BF64E0C7
:104C3000E079032841D1254608352878002828D175
:104C400000261DE0E81C815D374801F0A1FE002828
:104C500002D1701C86B213E000BF28486038807D06
:104C6000002809D002F0A8FE0746254B0B33254A41
:104C700039462EA010F036FD00BF022013F01AFABC
:104C8000A9786A7808021043B042DBDC05F06CFFBB
:104C900012E000BF19486038807D00280BD002F078
:104CA0008BFE06462878E9239B00164A3146009081
:104CB00025A010F017FD00BF1FE0E07904281CD1EB
:104CC000002029490870254608352878002813D087
:104CD00000BF0A486038807D002809D002F06CFED1
:104CE0000646EB239B00074A314620A010F0FAFC51
:104CF00000BF742006F07EFE00BFF8BD681D0020D6
:104D00009303000044890100583130202573202589
:104D1000733A2825642920736574206274206E61BB
:104D20006D653D25642E0A00880100205831302031
:104D300025732025733A2825642920627420627522
:104D40006666206F662E0A005831302025732025B4
:104D5000733A2825642920747970653D25642C6593
:104D600072722E0A000000002D0000205831302001
:104D700025732025733A28256429206274207478CD
:104D8000206661696C2E0A00F8B50446E51C681CB3
:104D9000FDF70AFBC7B238460EF016F80646F1B228
:104DA00020460AF0E5F9F8BDF8B50446E51C681C94
:104DB000FDF7FAFAC7B20122B42138460EF0A4FA80
:104DC0000646F1B220460AF0D3F9F8BD70B50446A4
:104DD000E61C701CFDF7E8FAC5B228460BF0FAFC99
:104DE000002120460AF0C4F970BD10B50446002128
:104DF00020460AF0BDF909F08BFD10BD70B50446E0
:104E0000E61C701CFDF7D0FAC5B228460BF026FC54
:104E1000002120460AF0ACF970BD000010B5044630
:104E20000822E11C14A007F069FAE21C0821012005
:104E300010F06AFA0822E11C1748FDF705FA012272
:104E40000B2189011448263801F04FFE0120A07083
:104E50000020E070A078C11C204602F099FEC1B28B
:104E6000A278E01C8154A078021D214600200AF09F
:104E700013F909F04DFD10BD427453657443686128
:104E80007267657244657669636549642064657616
:104E900069636549640000000E1D002070B504467A
:104EA00000250822E11C29A007F028FA02F05AFE8A
:104EB000002803D102F0D8FB002801DD01252FE0F6
:104EC0000822E11C2748FDF72FFA002828D0E21C11
:104ED0000821002010F018FAA521C9002248FDF78A
:104EE000DAF90122A521C9001F4801F0E4FD0822DA
:104EF000E11C1C48FDF7A8F908211A480830FDF705
:104F0000CAF9184A08320821012010F0FDF91549A4
:104F10001B310020FDF752FA0FF086FD01F012F967
:104F20000120A070E570A078C11C204602F030FE80
:104F3000C1B2A278E01C8154A078021D2146002055
:104F40000AF0AAF809F0E4FC70BD00004274536551
:104F50007443686172676572536E20736574207361
:104F60006E000000061D00208C0C0020F8B50546E0
:104F7000EC1C00BF1648807D00280ED0601CFDF799
:104F800013FA064602F018FD074609239B01114A51
:104F9000394611A0009610F0A5FB00BF601CFDF77C
:104FA00003FA1749884203D9601CFDF7FDF900E0B8
:104FB000134881B206486030818301220B218901A8
:104FC000803801F092FD002128460AF0D1F8F8BDA2
:104FD000081D0020A58701005831302025732025A9
:104FE000733A28256429206368617267696E674691
:104FF000756C6C54696D653D25642E0A00000000D7
:105000008C0A0000F8B50446E51C00BF0E48807D00
:1050100000280DD0681CFDF7C7F9064602F0CCFC4D
:1050200007460A4B0A4A39460AA0009610F05AFB76
:1050300000BF681CFDF7B8F906460BF067FC0021BD
:1050400020460AF095F8F8BD081D00204B0200002C
:10505000B38701005831302025732025733A282565
:10506000642920706773743D25642E0A00000000D7
:105070007CB50446002C01D0022000E0012005464A
:10508000002C10D000BF1948807D00280AD002F003
:1050900093FC0646FF231133154A314615A00094B0
:1050A00010F020FB00BF1C48807BA0421AD004F007
:1050B00065FE002816D11848C07B0A280EDA0020A9
:1050C000034603221221009501900AF0EFF91248DD
:1050D000C07B401CC1B21048C17303E00E4884730A
:1050E0000021C1730D4844707CBD0000081D0020E4
:1050F000048801005831302025732025733A282573
:105100006429206274207374617475733D25642C66
:105110006572722E0A00000068210020F60200204D
:1051200070B5C2B0044600203E903F904090419040
:10513000A648007A012812D102F038FDA449096876
:10514000401A0F2801D9012000E00020002806D0D5
:1051500002F02CFD9E49086000219C480172E07914
:1051600001287DD100200AF0C7F8254608352878A7
:10517000012815D10021954801700022022195488F
:1051800007F022FE01219148017202F00FFD9049C3
:1051900008608E480079F02188438C490871A0E0AE
:1051A00028780228FBD101AA80218BA0FEF73AFAC9
:1051B0000422691C3EA8FDF747F804223EA98AA0F4
:1051C00007F09CF801AA8A493EA8FEF745F8062296
:1051D000874988A007F092F87C480079F02188433D
:1051E0007A4908710846007800280FD002F0DEFCEA
:1051F00076492039496E401A0F2807D8734800783D
:1052000001283ED10EF064FA01283AD100BF7C4853
:10521000807D002809D002F0CFFB0646D1239B00F9
:10522000784A314678A010F05DFA00BF6748203810
:10523000406A0321090288436449203948620021F9
:105240006248017002F0B2FC6049203948660122D0
:105250000221674807F0B8FD062265495B4800E077
:1052600040E03C30FCF7F0FF58482038406A03210A
:10527000090388435549203948620921534841723E
:105280002FE05248007805282BD100BF5C48807D74
:10529000002808D002F090FB0646624B594A31467E
:1052A00061A010F01FFA00BF48482038406A03216F
:1052B0000902884345492039486208214348017062
:1052C000012202214A4807F07FFD40482038406A09
:1052D0000321090388433D492039486209213B489D
:1052E000417270E0E079022851D1254608353748EF
:1052F000007A012823D1287800281CD100BF40481B
:10530000807D002809D002F057FB0646454B10333C
:105310003C4A31464BA010F0E5F900BF204606F0AC
:1053200087F82A482038406A032109028843274920
:10533000203948622AE004F031FD42B070BD28787F
:1053400000281FD100BF2E48807D002809D002F020
:1053500033FB0646DB239B002A4A314639A010F076
:10536000C1F900BF19482038808C8005800F0128C2
:1053700003D1204601F076F903E0204600F070F8F2
:1053800000BF03E01A4806F0E1FCD6E71BE0E07935
:10539000032818D1204610F003F802F007FC0B494F
:1053A0002039486600210948017000790009000190
:1053B0000649087108462038406A032109028843DB
:1053C00002492039486200BFB7E7000028210020C9
:1053D0004000002038000020636861726765726CCD
:1053E000696E6B3132333400706879536E3A000065
:1053F0007B04002063617264206B6579413A000090
:10540000081D0020338901005831302025732025E4
:10541000733A2825642920B5DA31B4CECBA2BFA8CF
:105420002E0A00004F03000058313020257320253C
:10543000733A2825642920B5DA32B4CECBA2BFA8AE
:105440002E0A00005831302025732025733A282574
:10545000642920B6C1BFA8B3C9B9A62E0A000000AE
:10546000F8B50446254608356E1C3148808C80040A
:10547000800F00280DD12E48406A0321090388437C
:105480000121090340182A49486231782848203010
:10549000817227482030807A11281CD100BF25480E
:1054A000807D002808D002F087FA0746224B234A65
:1054B000394623A010F016F900BF00F06DFB00285C
:1054C00003D0CE2006F096FAF8BD19495C3120468B
:1054D00007F064FE2AE016482030807A12281ED198
:1054E0001348406A03210903884311494862002197
:1054F0000F482030017000BF0E48807D002809D081
:1055000002F05AFA07460C4B0B330C4A394612A0EC
:1055100010F0E8F800BF204607F0D6FB06E004488C
:10552000406A0321090288430149486200BFCBE772
:1055300008210020081D00200F030000228901001F
:105540005831302025732025733A2825642920D628
:10555000A7B8B6BFA82E0A005831302025732025E1
:10556000733A2825642920BCF8C8A8BFA82E0A00D1
:1055700000B591B04022F521890201A803F094FC06
:105580003E2101A802F0E0FA10A9498888421CD007
:1055900038200190012108A88170C170FF212D31B0
:1055A000684681840B49C1843E2101A802F0CCFAEF
:1055B00081B210A84180F520800203F0BBFC40229C
:1055C000F521890201A803F07FFC01A807F014FF70
:1055D00011B000BD8C0A0000F0B591B00024002687
:1055E00000200D90012514E1681E6E2148438D496D
:1055F0004418681E602148438B4946180EA9284666
:1056000002F05CFAA07800287DD008A8007E00286F
:105610003DD008A8007EC007C00F002806D00A2190
:105620005C20015501215D20015510E008A8007E95
:1056300004210840002801D0132100E012215C2041
:105640000155015D5D2001553B2009F085FB00BF40
:105650007648807D00280DD002F0AEF9074608A8F4
:10566000007E5123DB00724A39460095019071A0FB
:1056700010F038F800BF002001210091019008A926
:105680000B7EE8B20022122109F010FF35E05C2009
:10569000005D0C2831D120465330FCF785FE10996F
:1056A000884218D220465330FCF77EFE1099091A22
:1056B000204662304279037910021843081881B2FB
:1056C000204662300171090A417121465331109818
:1056D000FCF774FE0BE020465330FCF765FE109992
:1056E000884204D9214653311098FCF767FE6A4678
:1056F000518FE8B2224602F05DFE5C20005D0C286E
:1057000005D0E8B200E083E00CF05EFB1AE070899F
:105710000A21FCF73FFD0D9940185249884209DBE8
:1057200015215C20015507215D200155E8B20CF0E0
:105730004BFB07E070890A21FCF72CFD0D994018FE
:1057400080B20D9002F032FA3168401A3C285CD3E6
:1057500002F02CFA3060204660304178027808026E
:105760001043401C81B2204660300170090A41702C
:1057700000BF2E48807D002846D0726831688A1AA2
:105780005A21895B881A3C21FCF7EEFC0C9002F050
:105790000DFA074620464B30FCF706FE381A3C212E
:1057A0000990FCF7E1FC0B9002F006F90A90A27850
:1057B00020466030437800781B0218430C99089506
:1057C00006920791059020466230427903791002D3
:1057D0001843024620464330437D077D1802384374
:1057E0006B465B8F0B9901930392049102902046C4
:1057F000623041780278080210431B4B0C4A00903B
:105800001A480A990FF06EFF00BF0A2012F052FCEE
:105810006D1C0C2D00DCE7E60349A0390D9888814A
:1058200011B0F0BD8C0C0020A8210020081D002024
:105830008D9201005831302025732025733A282598
:105840006429206661756C742073746F702C6775A1
:105850006E69643D25642C7374617475733D2564B1
:105860002E0A0000FC210000A602000094BD0100E9
:10587000F0B587B000200690002600240125D1E075
:10588000681E6E21484376494418A07800287BD0D2
:10589000012006902420005D022807D02420005D0E
:1058A000012873D14620005D00286FD06520005D7F
:1058B000C100204626300E182246603253781778F1
:1058C0001A023A43737937791B023B435A43104615
:1058D000F279B37912021A431146FCF75BFC81B2EC
:1058E000204643300175090A4175417D027D080259
:1058F0001043214642314A7E0B7E110219438842F1
:1059000044DB00BF5748807D002827D002F04EF9C5
:10591000074620464B30FCF747FD381A3C210390E0
:10592000FCF722FC059002F047F804902046423034
:10593000427E037E10021843024620464330437DD8
:10594000007D1B0218430599474B03950192029174
:105950000090464A464804990FF0C4FE00BF204616
:105960004230417E027E08021043214643310875D1
:10597000000A487500215C20015503215D20015576
:10598000E8B20CF021FA4CE04AE0FFE72046603034
:1059900041780278080210432D21090188420ADC6F
:1059A00002F004F9074620464B30FCF7FDFC381A9C
:1059B0003049884234D9F279B37912021A43114638
:1059C0007279337912021A432D231B015A43104670
:1059D000FCF7E0FB81B2204643300175090A4175AE
:1059E0000C215C20015505215D20015500BF1D489B
:1059F000807D002810D020464B30FCF7D5FC0746B0
:105A000001F0DAFF184B0D33184A01460197009553
:105A1000059019A00FF066FE00BFE8B20CF0D4F9B3
:105A200000BF6D1C0C2D00DC2AE70698002814D05E
:105A300002F0BCF81E490968401A4B21090188424E
:105A40000BD902F0B3F81A4908600122A521C90058
:105A5000034801F030F80EF0E7FF07B0F0BD00009A
:105A60008C0C0020081D0020C10200009E92010045
:105A7000C0BC010080510100583130202573202521
:105A8000733A28256429206F7665722031326820A8
:105A900073746F702C67756E49643D25642C737444
:105AA0006172745F74696D653D25642E0A000000A3
:105AB00068000020FEB5054600200090019002908D
:105AC0001D484078002800D0FEBD012D32D11B4872
:105AD000807B00282ED10822184962391848FCF72B
:105AE00023FC002826D0052214495F39684600F0BF
:105AF00063FC002419E06846005D302803DB68463B
:105B0000005D392810DD00BF0C486038807D00281A
:105B100008D001F051FF06460A4B0B4A31460BA054
:105B20000FF0E0FD00BFCFE7641C0A2CE3DB684602
:105B30000AF062FD00BFC7E7F6020020681D0020E2
:105B4000DB910100FF0300005F8901005831302024
:105B500025732025733A2825642920736E206572E9
:105B6000722E0A0010B50B48807B102108400028D7
:105B70000FD002F01BF8074980310969401AFF2154
:105B8000E131884205D90348807B102188430149CF
:105B9000887310BD0821002006484079012806D0EE
:105BA00004484079022802D00020C04370470020FA
:105BB000FCE70000201D00207CB501F023FF044617
:105BC0000E480079A04218D000BF0D48807D002803
:105BD0000CD001F0F1FE0546084800791C23094A63
:105BE00029460194009008A00FF07CFD00BF0349F6
:105BF0000C7120461F3009F0AFF87CBDD415002091
:105C0000081D0020A88F0100583130202573202561
:105C1000733A28256429206469616C20737769745C
:105C20006368206368616E67652C202564202D3EC3
:105C300025642E0A000000007FB5044601A9204615
:105C400001F03CFF002812D000BF1648807D0028DC
:105C500008D001F0B1FE05465D23134A294613A082
:105C60000FF040FD00BF0020C04304B070BD684687
:105C70000079002814D000BF0A48807D00280BD08E
:105C800001F09AFE0546684600796223064A2946D5
:105C9000009010A00FF026FD00BF0020C043E4E7F5
:105CA0000020E2E7081D0020E88E01005831302076
:105CB00025732025733A282564292063616C6C20A4
:105CC00047657447756E53746174757320666169B6
:105CD0006C2E0A005831302025732025733A282570
:105CE0006429207374617475733D25642C65727228
:105CF0006F722E0A0000000070B504460D4616466D
:105D0000002C06D10D480078401C0C49087000207A
:105D100070BD0A2D0FDD094801780120884008492F
:105D200009680843064908600448007805F062FEE7
:105D30000020024908700020C043E9E7B4000020B9
:105D4000B000002010B501F00DFF441C782C01DAE2
:105D5000002010BD0020C043FBE700003EB51A49FB
:105D6000C87889780002084380280BDA16494878F9
:105D7000097800020843802804DA01F0F3FE0446A3
:105D800078281EDD00BF1148807D002815D001F065
:105D900013FE05460C4948780978000201430A4A77
:105DA000D0789278000210433123094A029401917D
:105DB0000090294607A00FF095FC00BF0020C043CB
:105DC0003EBD0020FCE70000B4110020081D0020AB
:105DD000198F01005831302025732025733A28256A
:105DE000642920775F696E6465783D25642C206F97
:105DF0007220725F696E6465783D25642C73756DE1
:105E00003D25642C6572726F722E0A00F8B5044647
:105E1000601E6E214843454945180C2C01DC012CBD
:105E200014DA00BF4248807D002809D001F0C4FD8B
:105E3000064699233F4A31463FA000940FF052FC9A
:105E400000BF662005F0D6FD0520F8BDA878002823
:105E500014D000BF3648807D002809D001F0ACFD89
:105E600006469F23334A31463AA000940FF03AFC8D
:105E700000BF0E2008F070FF0320E6E701F070FD80
:105E800001281BD001F06CFD022817D000BF284864
:105E9000807D00280CD001F063FD064601F08CFDEA
:105EA0000746A623234A394632A000960FF01AFC73
:105EB00000BF682005F09EFD0220C6E72046FFF7E0
:105EC000BBFE002813D000BF1948807D002808D0F1
:105ED00001F072FD0646AC23164A31462CA00FF0A5
:105EE00001FC00BF692005F085FD0120ADE72F48CA
:105EF00080892F49884216DD00BF0D48807D00282B
:105F00000BD001F059FD064628488089B223094A82
:105F10003146009027A00FF0E5FB00BF712005F08F
:105F200069FD072091E700208FE700008C0C00201E
:105F3000081D002052900100583130202573202583
:105F4000733A282564292067756E3D25642C657297
:105F5000722E0A005831302025732025733A2825E7
:105F600064292067756E20256420627573792E0A76
:105F7000000000005831302025732025733A282571
:105F8000642920636D3D25642C6572722E0A000021
:105F90005831302025732025733A28256429206341
:105FA0006773206661696C2E0A00000008210020DA
:105FB000781E00005831302025732025733A28259B
:105FC000642920703D25642E0A00000010B501F000
:105FD000EDFD10490968401A78281AD90E48007852
:105FE000012816D100BF0D48807D002808D001F09F
:105FF000E3FC044619230A4A21460AA00FF072FB6B
:1060000000BFFF2101310E4801F0D5FA00200249FE
:10601000087010BDE8000020EC000020081D0020E2
:1060200004B901005831302025732025733A282502
:106030006429207064207363383032342E0A0000E3
:106040000016014010B500BF0948807D002808D027
:1060500001F0B2FC0446074B074A214607A00FF0A7
:1060600041FB00BF012149020B4801F0A4FA10BD19
:10607000081D0020EA030000538901005831302038
:1060800025732025733A2825642920434B4220702C
:106090006F662E0A000000000016014008B50120BE
:1060A0000023024641020090044801F069FA0121F0
:1060B0004902024801F083FA08BD000000160140C1
:1060C000D8B0002508F0FEFB18211A48FCF7E3F8C9
:1060D000FF225F3269461748083000F041FC272153
:1060E0001548FCF7D8F801201349487020E0142027
:1060F00011F0E0FF01F05AFDA04215D001F056FD6D
:1061000004460E480E4948606D1CE806C00E002883
:1061100004D10120FFF7CEFCFFF724FD06F07EFC42
:1061200004F0A0FC0EF09AFA06F0BAFA07F0DEFAD4
:10613000DDE7000080010020F60200207FAA0000B9
:106140000000014010B500200D4908704870002182
:106150000B488170C1701E2101F01AFD81B2084800
:106160008177090AC17720220146D00100F050F959
:10617000034948780978000208430249088010BDA5
:10618000B41100207400002008490968C907490FAC
:10619000074A50580749054A11601146C96A064A1C
:1061A0001140024AD16211460860704700F0004079
:1061B0008CB801005AA50000DFFF0000F8B50446C6
:1061C0000027601CFCF7F0F8002814D100BF3D4800
:1061D000807D002808D001F0EFFB06463A4B3B4A91
:1061E00031463BA00FF07EFA00BFCF2005F002FC45
:1061F0000020C043F8BD6079012816D1A61D307873
:10620000042804DDCB2005F0F5FB01270CE03078F5
:10621000C000451C2A4631462A481E30FCF714F8B7
:10622000012128481830417125E0607902280CD1FD
:10623000A61D04250422314622481E30FCF704F82E
:10624000022120481830417115E000BF1D48807DB3
:1062500000280BD001F0B0FB064660791A4B1533CD
:106260001A4A3146009021A00FF03CFA00BFCD2021
:1062700005F0C0FB0127002F22D1A01D415D114870
:1062800040300171A01D691C405CA11DAA1C895CE5
:10629000090208430B496031C887601CFCF784F889
:1062A000064608491931FCF789F821780548017636
:1062B00001220B218901203800F017FC0AF0A2FD11
:1062C000384697E7081D0020B10200009C900100AD
:1062D0005831302025732025733A282564292069F8
:1062E000643D302C6572722E0A0000005831302057
:1062F00025732025733A28256429206D6F64653D38
:1063000025642C6572722E0A00000000F8B5044660
:10631000254611352846FFF751FF06462A78F1B287
:10632000E37BA77B1B023B43184609F07BF8F8BDD3
:1063300010B50E484079012817D00C484079022842
:1063400013D000BF09481838807D002809D001F01B
:1063500033FB0446FF23F233054A214605A00FF024
:10636000C1F900BF002009F0FFFB10BD201D002077
:10637000719001005831302025732025733A28256B
:1063800064292073656E64207265712E0A00000016
:10639000014609E0002004E000BF00BF00BF00BFCD
:1063A000401C044A9042F7D30A464B1ED9B2002A39
:1063B000F0D170478A020000F7B582B00C4615464E
:1063C000274600260CE0002001903A787F1C06A1A9
:1063D00001A80FF097F901A90298FBF767FF761C57
:1063E000AE42F0DB05B0F0BD253032780000000091
:1063F000F8B505460E461746002406E0291930195F
:1064000001220FF00CFC601C84B2BC42F6DBF8BD2C
:1064100070B504460D4616463246294620460FF012
:106420000BFC70BD10B50F4C00200F49486049159A
:106430000E4801F0B6F8002813D160780A2810D170
:106440002089401C20810020E0706070A070012035
:1064500020703421032005F065FAA07901210CF0A9
:1064600097FB10BD842C0020001801400010014053
:10647000012003490870002002494860704700006D
:10648000E000002000180140F8B505460E4617460A
:1064900000240CE03A46314628460FF0CDFB002898
:1064A00000D1F8BD7D20C00011F004FE641C042C56
:1064B000F0DB0020C043F4E770B5002501240FE0B5
:1064C000E0000949451809496868FCF7B6F806462E
:1064D000FCF732FA0C216143054A89188860641C74
:1064E0000D2CEDDB002070BD340B002000C8AF4840
:1064F0009C0B002038B54921C9002A4800F0A1FAB8
:1065000091218900274801F043FB84B22548008887
:106510002549884203D125488088A0421FD000BF6A
:106520002348807D002809D001F046FA05467B23E8
:10653000DB00204A294620A00FF0D4F800BF1A48FB
:1065400018490880002048800922920121491548F5
:10655000001DFBF779FE134808F0ECFB0EE000BFCE
:106560001348807D002808D001F026FA05461A4B12
:10657000104A294619A00FF0B5F800BF00BF0C481B
:10658000807D00280CD001F017FA054605484088A8
:106590001F235B01074A2946009018A00FF0A2F8BC
:1065A00000BF38BD8C050020AA550000CC07002094
:1065B000081D0020718E01005831302025732025E0
:1065C000733A2825642920666972737420696E699C
:1065D000742E0A00FC8B0100DE03000058313020CD
:1065E00025732025733A28256429207365636F6E0F
:1065F0006420696E69742E0A000000005831302052
:1066000025732025733A2825642920663D25582EB8
:106610000A000000FCB505460E4614461F462046FB
:10662000E117090F09180905090E019100200090D2
:106630000DE03A4631462846FCF70EFE0748084969
:106640004860103510360098401CC0B20090019987
:1066500000988842EDDB0020FCBD00007FAA00000E
:1066600000000140F8B50446254608356E1C3D483B
:10667000808C8004800F00280DD13A48406A0321A5
:1066800009038843012109034018364948623178DB
:1066900034482030817233482030807A11281CD150
:1066A00000BF3148807D002808D001F085F90746F9
:1066B0002E4B2F4A39462FA00FF014F800BFFFF7DA
:1066C0006BFA002803D0CE2005F094F9F8BD2549D7
:1066D0005C31204600F070F841E022482030807A9A
:1066E000122825D11F48406A0321090388431D4908
:1066F000486200211B482030017000BF1A48807D8D
:10670000002809D001F058F90746184B0B33184AF6
:1067100039461EA00EF0E6FF00BF204606F0D4FA70
:106720001048406A0321090288430E49486216E076
:1067300000BF0D48807D002809D001F03DF90746D3
:10674000AB239B000A4A394616A00EF0CBFF00BFD0
:106750000448406A0321090288430249486200BF95
:10676000B4E7000008210020081D00209B02000063
:10677000C68801005831302025732025733A28251A
:10678000642920D6A7B8B6BFA82E0A0058313020F9
:1067900025732025733A2825642920BCF8C8A8BF92
:1067A000A82E0A005831302025732025733A282559
:1067B0006429206572720A00FEB505460E462C4615
:1067C0000834671C601C029000BF3248807D00289E
:1067D0000BD001F0F1F801902F48407A2F4B304A4E
:1067E000009030A001990EF07DFF00BF2A48407A4A
:1067F0002D281ED0302817D0312847D100BF25487A
:10680000807D002809D001F0D7F8244B1B1D244AB5
:10681000014601902AA00EF065FF00BF0A22314612
:10682000384606F0FBFB32E00A21029806F020FB16
:106830002DE01022611C28A005F060FD0A221549F8
:10684000A031601CFBF770FD002816D000BF114876
:10685000807D002809D001F0AFF8104B1033104AAA
:10686000014601901FA00EF03DFF00BF0A2008F076
:1068700073FA002108480170FEBD302106484172BC
:1068800000220C21304606F09FFA00E000BF00BF56
:1068900000BFF1E7081D0020282100201D02000094
:1068A000918801005831302025732025733A28251E
:1068B000642920626C6F636B3D25640A0000000050
:1068C0005831302025732025733A2825642920B6B5
:1068D000C1BFE934390A0000BFE93435CAFDBEDD65
:1068E000000000005831302025732025733A2825F8
:1068F0006429206F706E20697320646966210A0024
:10690000014600BF00BF0029FDD000BF08897047C5
:10691000014600BF00BF0029FDD000BF0020088154
:1069200048818881888070470246908953899842BF
:1069300013D05089431C538113681B5C0B70D088A3
:106940005389984201DC002050811089002802D030
:106950001089401E1081002070470020C043FBE7D3
:10696000034600BF00BF002BFDD000BF00BF00BF2B
:106970000029FDD000BF00BF00BF002AFDD000BF2E
:106980000020186058609860D8601960DA807047FD
:1069900010B502460B4690895489A04204DB9089C9
:1069A0005489001B411C05E09089D4880019548942
:1069B000001B411CD08888420FDD9089441C9481C3
:1069C000146823541089401C1081D0889489A042F7
:1069D00001DC00209081002010BD9088401C908038
:1069E0000020C043F8E710B5002406E0A1023B22D6
:1069F000D202881802F09EFA641C6E2CF6D310BDE9
:106A0000F0B505460E461746002406E03119281950
:106A1000012202F049FA601C84B2BC42F6DBF0BDF0
:106A200070B505460E46002407E029190122D2025E
:106A3000A01801220FF0F3F8641CB442F5DB00202B
:106A400070BD70B505460E46002407E029190522E1
:106A50009202A01801220FF0E2F8641CB442F5DBA8
:106A6000002070BD70B505460E46002405E02919CA
:106A7000204601220FF0D3F8641CB442F7DB00205B
:106A800070BD70B504460D462A4621460520800299
:106A9000FFF7FAFC002802D00020C04370BD0020A0
:106AA000FCE770B504460D46164632462146284698
:106AB00002F00AFA70BD7CB504460D4616462A4619
:106AC00021460120C002FFF7DFFC00280BD0002088
:106AD00001210B46022200910190122108F0E6FCF0
:106AE0000020C0437CBD0020FCE77CB504460D4679
:106AF00016462A4621460020FFF7C6FC00280BD088
:106B0000002001210346022200910190122108F089
:106B1000CDFC0020C0437CBD0020FCE7FFB5B3B036
:106B2000402123A8FBF7B7FB002022900025002678
:106B3000402109A8FBF7AFFB002006900590EA482A
:106B4000EA4948600020EA4908700022E9A109A842
:106B50000EF0D8FD00237D22D200EAA109A801F0A1
:106B60006BFA00237D22D200E9A1EBA001F064FAC8
:106B700000237D22D200EBA1ECA001F05DFA0023FE
:106B80007D221201EDA1F0A001F056FA002812D0EA
:106B900000BFF148807D002808D000F00DFFEF4BCA
:106BA000EF4A01460490EFA00EF09CFD00BF0020CC
:106BB000C0432290DAE30023C822DAA1F1A001F059
:106BC0003BFA0023C822D7A1F2A001F035FA002336
:106BD000C822D4A1F3A001F02FFA2F213398FBF79C
:106BE00092FB1990402109A8FBF755FB339919989E
:106BF000421A09A8FBF77AFB09AAEEA123A80EF016
:106C000081FD0023C822C7A123A801F015FA402165
:106C100023A8FBF740FBECA123A8349A0EF072FDE9
:106C200000236422BFA123A801F006FA402123A873
:106C3000FBF731FBE8A123A8359A0EF063FD002392
:106C40006422B8A123A801F0F7F9402109A8FBF7B5
:106C500022FB1998401CFBF760FB0246049019992F
:106C6000491C09A8FBF742FB09A8FBF756FB09A939
:106C70002F220A54402123A8FBF70DFB09AADAA111
:106C800023A80EF03FFD00236422A6A123A801F053
:106C9000D3F9402123A8FBF7FEFAD8A123A8369AFE
:106CA0000EF030FD002364229EA123A801F0C4F958
:106CB00000207D23DB000A22D5A10090D7A001F09F
:106CC000EFF9002823D10022D7A109A80EF01AFD60
:106CD0000D2209A9864810F025FD0446002C2DD16F
:106CE00000BF9D48807D002809D000F065FE9B4BC9
:106CF0002C339B4A01460490CFA00EF0F3FC00BF5A
:106D00000120C0432290352004F074FE5FE300BFF1
:106D10009148807D002809D000F04EFECD239B00D5
:106D20008F4A01460490CBA00EF0DCFC00BF01208E
:106D3000C0432290342004F05DFE48E300BF864843
:106D4000807D00280AD000F037FE844B3733844A18
:106D5000014600940490C5A00EF0C4FC00BF0020C2
:106D60007D23DB000A22C7A10090C9A001F098F999
:106D700000287DD122903B20C002079000F016FF32
:106D8000089010201F90002794E257485749486008
:106D900000F00CFF0899401A5A2800D98BE24021D4
:106DA00009A8FBF778FA0222BDA109A81F9B0EF0E3
:106DB000A9FC00207D23DB0001220146009009A8E8
:106DC00001F06EF90A2011F075F900201D901E9057
:106DD00038E04548454948604121C9004448FBF72F
:106DE0005AFA7D23DB001E22414900200EF0B4F840
:106DF00000201B901A900EE03D491B98085C20284B
:106E000006D01B980A5C1A98411C1A9138490A54FA
:106E10001B98401C1B903648FBF77FFA1B99884251
:106E2000EAD80021324A1A981154A2A11046FBF761
:106E300049FA002806D000229EA12D4810F072FCCD
:106E40001D9005E01E98411CC9B21E911428C0DB9C
:106E500000BF052011F02EF91D9800283ED01D9886
:106E600081B2234800F0DEFD1D90022F37DA00E0EA
:106E700096E2002F34D11E48059005980078AA2884
:106E80002FD10598407855282BD1059880782190EE
:106E90000598C0782090781CC7B200BF2E48807D2E
:106EA000002809D000F088FD6D23DB002C4A014644
:106EB000049083A00EF016FC00BF2198002811D189
:106EC00000BF2548807D00280DD000F075FD04909E
:106ED0002198224B6833224A0090FFE0E1E1AAE1C9
:106EE00023E107E18CE1FDE07FAA00000000014002
:106EF000242A002041542B434950434C4F53453DD5
:106F000025640D00434C4F5345204F4B00000000BB
:106F100053485554204F4B0041542B43495053483C
:106F200055540D000D0A4F4B0D0A000041542B53D0
:106F3000415042523D312C310D0000002B53415045
:106F400042523A20312C310041542B53415042528D
:106F50003D322C310D000000081D0020020300000E
:106F6000259601005831302025732025733A2825B5
:106F700064292073656E6420636D642C6572722EC3
:106F80000A00000041542B4654504349443D310D02
:106F90000000000041542B465450545950453D22A6
:106FA00049220D0041542B4654504D4F44453D302D
:106FB0000D00000041542B465450534552563D227B
:106FC0002573220D0000000041542B465450554EAD
:106FD0003D222573220D000041542B46545050573A
:106FE0003D222573220D000041542B465450474545
:106FF00054504154483D222573220D0041542B46E4
:1070000054504745544E414D453D222573220D00B5
:107010002B46545053495A453A00000041542B46E0
:10702000545053495A450D002B46545053495A4524
:107030003A312C25642C000058313020257320254E
:10704000733A282564292066733D30206661696C97
:107050002E0A00005831302025732025733A282548
:107060006429206661696C2E0A00000058313020C6
:1070700025732025733A282564292066733D2564ED
:107080002E0A00002B4654504745543A312C31000B
:1070900041542B4654504745543D310D00000000EB
:1070A00041542B4654504745543D25642C25640DCE
:1070B000000000002B4654504745543A322C000043
:1070C0005831302025732025733A28256429206102
:1070D000613535206F6B2E0A00000000C6A00499B0
:1070E0000EF000FB00BF392004F084FC0020C043F8
:1070F00037B0F0BD00BFC848807D00280ED000F03A
:107100005BFC0490C5484078C4490978C44BC54A23
:1071100000910190C4A004990EF0E4FA00BF3A2057
:1071200004F068FC0020C043E2E7012F68D1BB49AE
:1071300006910698FBF738F90446069948790979CB
:10714000000208433C9003220699891DBFA0FBF76B
:10715000EBF822902298002853D1AF488730FBF7F4
:1071600023F9A04224D1AC48873041790279080242
:1071700010433C9988421BD1A748873081792098D9
:10718000814215D100BFA448807D002809D000F0BD
:1071900013FCA34B0F33A34A01460490ACA00EF09E
:1071A000A1FA00BFC920800004F06AFC00209FE71C
:1071B000781CC7B200BF9848807D00280ED000F030
:1071C000FBFB049020993C98954B1433954A00940E
:1071D00002910190A9A004990EF084FA00BF012049
:1071E00040021F9008218C488730FBF754F8012299
:1071F0000B21890188482038FFF777FCFFF7F3FB64
:1072000018E000BF8448807D00280CD000F0D4FB3B
:1072100004900698801D824B1A33824A0090A3A0E6
:1072200004990EF05FFA00BF3B2004F0E3FB00205E
:10723000C0435DE73EE000201C9007E077491C98C2
:10724000085C801986B21C98401C1C901D991C98E3
:107250008842F3DB1D982D1800BF6F48807D002801
:1072600013D06421694308462146FAF793FF04903E
:1072700000F0A2FB03900498694B2633694A0095FD
:10728000019091A003990EF02DFA00BF1D9882B2D3
:1072900062490798FFF705FC1D9907984018079069
:1072A00007E0A54204DAFF20F53010F003FF00E00C
:1072B00001E000BF69E500BFA54258D13C98864275
:1072C0003BD100BF5448807D00280DD000F074FBF6
:1072D00004902098524B3733524A01960094029002
:1072E00082A004990EF0FEF900BF314620460EF050
:1072F000FDF8494987312846FBF760F84648873052
:107300000671310A417144498731209888710721FB
:107310004148873000F03CFCC1B23F488730C17122
:1073200001220B218901A738FFF7DFFB0020229003
:107330003B484E3804F0A4FB18E000BF3648807D7F
:1073400000280CD000F038FB04903C983B231B0134
:10735000344A0096019071A004990EF0C3F900BF61
:107360000020C0432290372004F044FB2FE000BFF0
:107370002948807D00280BD000F01EFB284B4733A6
:10738000284A01460195009404906DA00EF0AAF9D8
:1073900000BF0520C0432290382004F02BFB16E0EC
:1073A00000BF1D48807D002809D000F005FBEF23B9
:1073B0009B001C4A014604906A480EF093F900BFF6
:1073C0000420C0432290362004F014FB00BF00BF0D
:1073D0001148807D00280BD000F0EEFA049022982E
:1073E0000F4B53330F4A00905FA004990EF07AF9C7
:1073F00000BF22987CE600005831302025732025FC
:10740000733A28256429206677436E743D25642CE1
:107410006572722E0A000000081D0020242A002038
:107420006F03000025960100583130202573202578
:10743000733A2825642920686561643D25303278D7
:107440002C253032782C6572722E0A0058313000AB
:107450005831302025732025733A28256429206669
:10746000772073616D652C6E6F206E656564207585
:107470007067726164652E0A000000005831302088
:1074800025732025733A28256429206677206E61AC
:107490006D65206F6B2C66733D25642C6373313DE5
:1074A00025642C66763D25642E0A00005831302074
:1074B00025732025733A282564292066773D257396
:1074C0002C6572722E0A0000583130202573202559
:1074D000733A2825642920746F74616C2025642018
:1074E0005B256425255D2E0A000000005831302000
:1074F00025732025733A282564292073697A65202D
:1075000025642C6373202534582C66773D25642C24
:10751000667470206F6B2E0A000000005831302016
:1075200025732025733A282564292063733D25643B
:10753000213D6373313D25642C6572722E0A000073
:107540005831302025732025733A28256429206678
:10755000733D2564213D63663D25642C6572722E62
:107560000A00000054700000583130202573202597
:10757000733A28256429207265743D25642E0A001B
:10758000FFB582B00C4615461E460B9F6846048028
:107590008570C67007716946029801F0FBFC06B061
:1075A000F0BD0246002013690B40002B01D00120E2
:1075B00000E00020704782690A4382617047426997
:1075C0000A43426170470000F8B5054600260024D2
:1075D00030E0002E02D0012E2AD107E0285D0A28D3
:1075E00002D0285D0B2800D1012621E0285D30283B
:1075F0001DDB285D39281ADC291914221148FAF7F5
:1076000023FE00210F480838017700BF2030807D1D
:1076100000280AD000F0D0F907460A4897230A4A02
:107620003946009009A00EF05DF800BFF8BD00BF1C
:1076300000BF641C2846FAF770FEA042C9D800BFFC
:10764000F4E70000F01C00205D9401005831302068
:1076500025732025733A2825642920636369643DD6
:1076600025732E0A000000000020002108E06E2291
:107670004A43054BD2189278002A00D0401C491C7E
:107680000C29F4DB704700008C0C0020F3B589B0A6
:107690000998401E6E2148438E49441825462635D8
:1076A0002420005D01287CD10026E8E00A210A9808
:1076B000FAF770FD69782A780902114388427EDB67
:1076C0000A210A98FAF766FDE978AA7809021143B7
:1076D000884274DA6520065522464232537E177E70
:1076E0001A023A43EB79AF791B023B435A431046E7
:1076F0006A792B7912021A431146FAF74BFD81B2CF
:10770000204622300170090A4170207D032816D1DD
:10771000E27DA37D12021A43EB79AF791B023B4352
:107720005A4310466A792B7912021A431146FAF726
:1077300031FD81B2204660300173090A417300BFF8
:107740006548807D002830D000F036F9089020464A
:107750006030427B037B10021843024620462230F1
:1077600043780778180238430346E879AF79000276
:107770003843099904930592069103906879297911
:107780000002014320464230427E037E100218432D
:10779000FF23A333514A0096029101905048089963
:1077A00001E08FE00BE00DF09DFF00BF4620005D83
:1077B000401CC1B24620015500200BB0F0BD252071
:1077C000005D401EB04258D10A210A98FAF7E2FC47
:1077D000E978AA780902114388424EDD65200655F2
:1077E00022464232537E177E1A023A43EB79AF7932
:1077F0001B023B435A4310466A792B7912021A4303
:107800001146FAF7C7FC81B2204622300170090AFE
:10781000417000BF3048807D002825D000F0CCF8B2
:10782000089020462230427803781002184302461E
:10783000E879AB790002034368792F790002384375
:107840000999039304920591029020464230417EAB
:10785000027E08021043FF23AD33204A00960190B8
:10786000204808990DF03EFF00BF4620005D401CF7
:10787000C1B24620015500209FE70835761C25201F
:10788000005DB04200DD11E700BF1348807D002895
:1078900011D00A210A98FAF77DFC074600F08CF80F
:1078A00008900998FF23B4330C4A009701900EA06A
:1078B00008990DF017FF00BFC92004F09BF80020C5
:1078C000C0437AE74620005D401CC1B24620015506
:1078D000002072E78C0C0020081D00205F92010040
:1078E00004BD010050BD0100583130202573202512
:1078F000733A28256429206E6F742066696E6420AF
:10790000706F776572207365676D656E742C706F2C
:107910007765723D256420772C67756E69643D2517
:10792000642E0A0038B50B4C0B4803F0E9FD00202B
:107930000A490090887E897E491CCBB207498B7624
:1079400023460522002107F02AFC034803F0A6FD88
:10795000002038BD98010020300000208821002040
:107960000148407970470000201D0020FEB50C49F9
:10797000C9680C4A891808B2FAF7CAFF04460A4ACD
:107980000A4BFAF74BFF0A4A0A4B01910090FAF7AB
:107990003DFF0646FAF7E4FF00B202900298FEBDF2
:1079A00000E00040DC050000C7BAB88D06F0663F75
:1079B000D50968226CF8294000B585B003A800F00D
:1079C000FBF86846817C427C007C01920291009029
:1079D0006846C37B827B03A109480DF093FE0848EB
:1079E00005B000BD253032752D253032752025308B
:1079F00032753A253032753A253032750000000074
:107A0000542C002010B5012109030548FFF7C9FDDA
:107A10004400012149030248FFF7C3FD204310BD84
:107A200000100140FEB506460F4600242AE0174824
:107A3000174948607D252D0121E002A900200DF0A5
:107A40007BFA002805D16846027A2046641C32542D
:107A500017E0681E0546032811DA00BF0D48807D37
:107A6000002809D0FFF7A8FF0B4B0C4A01460095F0
:107A700001900BA00DF036FE00BF2046FEBD002D8C
:107A8000DBD100BFBC42D2DB2046F7E77FAA000073
:107A900000000140081D0020BE02000017960100F2
:107AA0005831302025732025733A28256429207405
:107AB0006F3D25642C6572722E0A000010B50246D7
:107AC0000C205043034BC41819CC19C10C390020A9
