:020000040000FA
:040FC000A2FFFFE7A6
:020000040000FA
:10200000A0A400204D21000055210000A5A600003D
:1020100000000000000000000000000000000000C0
:102020000000000000000000000000005921000036
:1020300000000000000000000B2100007D460100B0
:102040005F2100005F2100005F2100005F21000090
:102050005F2100005F21000049720000F172000062
:102060001D730000E557010061580100C1580100CF
:102070002959010089590100E95901002D4A01003F
:10208000B14A0100354B01007D4B01005F2100008A
:10209000FDE3000055A800005F2100005F21000063
:1020A0005F210000014C01005F210000495A01003E
:1020B0004D7300005F2100005F2100005F210000E0
:1020C0000348854600F002FE00480047258F0100C6
:1020D000A0A40020084B19680868203080F3098804
:1020E000022080F31488BFF36F8F3FBCAE4608BC5C
:1020F00004BC62B61847000068010020EFF31080AE
:1021000072B6704780F310887047EFF309800E4B6A
:102110001A6820381060F0C044464D4656465F4667
:10212000F0C008B572B618F05BFF62B60CBC11685F
:1021300008681030F0C8A046A946B246BB4680F3F6
:1021400009882038F0C818476801002004488047F3
:1021500004480047FEE7FEE7FEE7FEE7FEE7FEE78E
:1021600031470100C120000030B50B460146002078
:102170002022012409E00D46D5409D4205D31D468D
:102180009540491B2546954040191546521E002D85
:10219000F1DC30BD70B500242546002801DA0124A9
:1021A0004042002901DA01254942FFF7DDFFAC4238
:1021B00000D04042002C00D0494270BD38B50446E2
:1021C000C0681821401E4843A16840183C2148437C
:1021D000616840183C2148432168451860690C211A
:1021E0004843216940186921C900401A3021FFF78E
:1021F000D1FF114A50434219084600921A2902DBC6
:102200000E49511800910C21FFF7C4FF0C4A5043AE
:10221000009A801800900B4806E0491E425C074B6C
:102220005A43009BD21800920029F6DC21466846EA
:1022300000F002FC009838BD801F86078051010025
:102240008033E101E5EE010010B5431A934209D253
:102250008318881803E0401E01785B1E1970521E17
:10226000F9D210BD03460B439B0703D009E008C910
:10227000121F08C0042AFAD203E00B780370401C36
:10228000491C521EF9D210BDD2B201E00270401CAE
:10229000491EFBD270470022F6E710B513460A46E6
:1022A00004461946FFF7F0FF204610BD421E537842
:1022B000521C002BFBD10B781370491C521C002BB5
:1022C000F9D1704730B505462A460B4610781C7880
:1022D000521C5B1C002801D0A042F7D0002C03D078
:1022E000002802D06D1CEFE7284630BD10B504462B
:1022F00005E00B780370401C002B00D0491C521ED7
:10230000F7D2204610BDCAB2401E4178401C8A4216
:1023100002D00029F9D100207047421C0178401CEE
:102320000029FBD1801A704730B5044600200346CF
:1023300000E05B1C934203D2E05CCD5C401BF8D014
:1023400030BD30B505460020034600E05B1C9342DB
:1023500005D2EC5CC85C201A01D1002CF6D130BD4E
:1023600070B5104D002800D12868002414E00A46FA
:1023700002E09E4203D0521C1378002BF9D1DAB24E
:10238000224307D0002B06D0002C04D0002101707E
:10239000401C04E00446401C0678002EE7D128606B
:1023A000204670BDC00100200321001D401E03789F
:1023B00012021A43491EF9D51046704703460322FC
:1023C0000870000A491C521EFAD5184670470000D2
:1023D0000FB400B58DB009900B9010A900200091AA
:1023E000C0430A9000200C900648069006480790CB
:1023F0006A4609A80F9900F05FFB0DB008BC04B055
:1024000018470000D92A0000F92A0000FFB5002073
:1024100083B0009050680190916914460026976837
:102420000498884705460C990698084305D009E0AA
:10243000A169761C049888470546216A2846884782
:102440000028F5D1681C03D00198C00704D017E01C
:102450000020C04307B0F0BD2068011D2160006866
:1024600000900DE00198C00704D100980570009815
:10247000401C0090A169761C7F1E04988847054681
:10248000002F1CDD681C1AD0069800280FD0E81712
:10249000C00E401941118A000699400951184001A7
:1024A0002A1A0968012090400142DBD107E00C980C
:1024B0000028D7D1216A284688470028D2D0E16970
:1024C000049888470C98002807D1002E05DD019854
:1024D000C00702D1009800210170A068B84204DD55
:1024E0000C98002804D0002F02D00120C043B1E78F
:1024F0003046AFE770B5064615F088FB0468054620
:102500000A220021304600F009FB2C6070BDF8B5AE
:1025100002464A40D40F42004B0052085B089A42E0
:1025200002D20246084611464A0023D0C30D4A0093
:10253000DDB2120EAD1A202D35DA49020126490A04
:10254000F6058A19002C00D0524220214F1B11465B
:10255000B9402A411018C20D9A4221D0002C17D040
:10256000012D08DCDA05801AD20F8019D207DBB200
:1025700000F014FBF8BDDA05801A012340001B06A9
:10258000C01880185A428018CA0F1043490007E04B
:102590004908C2071143DA05801A801940088018DB
:1025A00000F0F4FAF8BD61000122511A001BF7E7B0
:1025B0000122D2075140AAE70122D2075040A6E7E4
:1025C000024670B54A40D30FDB0740002DD04A00C9
:1025D0002AD0010E140E000212020919400A520AF2
:1025E0008418E50104465443000A120A2E0450439D
:1025F000A4194219200CC543AA18120C0125AD03D9
:10260000521C521912047F39240400D0521C10436A
:1026100001D44000491EC2B20C06C0092018401C5B
:102620004008802A02D003E0002070BD400840002E
:10263000002900DA0020184370BD70B502464A40F8
:10264000D50F40004A00ED0740085208002814D07A
:10265000002A12D0C40DD30D41020120C005520240
:10266000490A520AE41A091812187D34914201D31A
:10267000641C00E04900002C01DA002070BD00233A
:10268000914201D3891A0343400849000028F7D139
:1026900000290AD0914202D10121C90705E09142E7
:1026A00001D2012101E00121C943E005C018401910
:1026B00000F06CFA70BD0000F0B5074608465840BF
:1026C00087B0C00F049048000E46590040084908E2
:1026D000BC1A884105D2384631461E4617460B467D
:1026E00002465800400810434CD0300D039040057E
:1026F0005900400D490D0590401A0290402872DAA9
:1027000018030121000B0905084301900498009269
:10271000002805D001995242002088410092019082
:10272000029840210A1A0199009800F049F90546DB
:102730000C466B4607CB00F064F9C0197141039A4F
:102740000E0D0023D71756401A467A40164344D040
:10275000049A002A2DD0029A012A039A15DC120548
:10276000C01A914101263605001C7141D20F059E09
:10277000D2070093019202962A46234600F054FAAB
:1027800007B0F0BD38463146FAE71605224A0F4633
:10279000B218C01AB74101210905001C4F410018A9
:1027A0007F41114618187941E20F10436D196441B9
:1027B00013E0E2076D0815436408C2071443039A47
:1027C00001261205C01A91413605001C7141CE0741
:1027D000400830434908C01851412A46234600F0BA
:1027E00016FACDE7FFE7049801224000C117121A3C
:1027F00000238B4104983146C417381AA141EEE7F3
:1028000030B40124E407634030BC55E730B4012400
:10281000E407614030BC4FE70000E0FFC217C10F82
:10282000504010B54018CA079623002100F0B6F9B1
:1028300010BD10B500229623114600F0AFF910BD6F
:10284000410040020122400AD205090E80187F296A
:1028500001DA00207047962903DC9622511AC840FD
:10286000704796398840704770B5CD0F4A0009030C
:102870000123090B1B0519430B4BED070024520DD7
:102880009A4201DA002070BD074B34339A4203DCD0
:102890009A1A00F0A5F802E00449511888402C4328
:1028A000F1D0404270BD0000FF030000CDFBFFFFF0
:1028B000C20FD207400040080BD0C10D0723DB0137
:1028C000C91840020905400A1143C20840071143D4
:1028D000704700200146704710B5002904DB012431
:1028E000E40740428C412146002B04DB1C460123B7
:1028F000DB075242A3418B4200D1824210BD00004F
:10290000CB0FDB07490010B5490802460A4307D040
:102910000A0D07240903E401090B121B002A01DC3C
:10292000002010BDC900440F0C43C100E018D205BF
:10293000801800F02BF910BD0122D207002800DB1F
:10294000101A002900DB511A814270470122D20778
:10295000002800DB101A002900DB511A884270475A
:10296000F0B51FB40646002082B005464024019110
:1029700000901BE0019922460F46304600F030F8E7
:10298000049A059B801A994110D310461946224695
:1029900000F016F8361A8F410197224601200021D7
:1029A000009F00F00DF838184D4100902046641E3D
:1029B0000028DFDC019B00982946324607B0F0BDB5
:1029C00010B5202A04DB0146203A9140002010BDBA
:1029D000914020239C1A0346E3401943904010BDC8
:1029E00010B5202A04DB0846203AD040002110BD53
:1029F0000B46D340D0402024A21A914008431946E8
:102A000010BD10B5202A06DBCB170846203A10412E
:102A1000C1170B4306E00B461341D0402024A21AF5
:102A200091400843194610BD10B5024900F004F862
:102A300010BD00007464002070B50C4600683C2195
:102A4000FFF792FB21603C21FFF78EFB61601821AC
:102A5000FFF78AFB0546A1600721001DFFF784FBF5
:102A6000A1610F48A90008180E49FFF77DFB024637
:102A7000443288086261E0613B2802D3910700D0AC
:102A8000401C0021084B0A462161995C814203D811
:102A9000401A521C2261F8E7401CE060204670BDDD
:102AA0006C0B0000B5050000F1EE01000268137820
:102AB000511801601846704710B5D1600449516142
:102AC0000449116200211161114600F01FF910BD87
:102AD000AD2A0000F92C00004268002A08D00168E5
:102AE0000B78491C002B03D0521E06C018467047B5
:102AF0000121C160881E70474268002A0BD0C3685C
:102B00000168002B07D183688B4204D0491E521CF8
:102B100006C0002070470020C0437047F7B5009CF6
:102B20000F4600262578641C002D05D000F0E0F843
:102B30000068405DC007F5D12B2D02D02D2D18D097
:102B4000641E39462046029A00F07CFA002F04D019
:102B50003968A14201D10099396071050224002928
:102B60000BDA4042002803DD15F050F80460A0079E
:102B7000FEBD012080020643E3E70028F8DA15F0E5
:102B800045F804600048FEBDFFFFFF7F002904DA1E
:102B9000401C490001D140084000704770B4002437
:102BA000050C05D11024000402D1002921D01124E4
:102BB000050E01D100020834050F01D10001241DCA
:102BC000850F01D18000A41C002801DB4000641C9B
:102BD000002908D020252E1B0D46F540A14000D02D
:102BE00001212943084301061B1B000ADB1D02D5F6
:102BF000002070BC7047DB05181880180029F8DA2F
:102C0000401C4900F5D170BC40084000704710B529
:102C1000002B08DA0024401C614192185B411A43E2
:102C200001D14008400010BDF0B51FB482B0054688
:102C30000C0003D0084614F0ABFF02E014F0A8FF2C
:102C400020300246009021462846FFF7B9FE049B3B
:102C5000059A04460F4618431143084314D01846FA
:102C600010431BD0009840210A1A18460599FFF717
:102C7000B7FE05460E46009A05990498FFF7A0FE98
:102C8000084305D0012004E02046394607B0F0BDD6
:102C90000020C11705430E432C43374300990E987B
:102CA0006305401A7905E40A00220C43FD0A0A3044
:102CB00002D500200146E9E70105101969410C9C85
:102CC0000D9D00196941FFF7A2FFDFE7064C0125C2
:102CD000064E05E0E36807CC2B430C3C98471034C4
:102CE000B442F7D3FFF7F0F9A4F60100C4F60100EF
:102CF0000048704780EF010010B50446FFF7F8FF69
:102D00000068005DC007C00F10BD0000F3B58DB0B6
:102D100000200A9001200B90002608460C300C463B
:102D20000990626901210998904705002ED0252D50
:102D30002DD0216A8847002818D06269012109989E
:102D40009047216A88470028F7D1411E6269099897
:102D5000904700E0761CA1690D988847216A884752
:102D60000028F7D1E1690D988847DAE7A1690D9845
:102D700088470746A84201D1761CD2E7E1690D9841
:102D800088477F1C02D10A98002877D049E10027A4
:102D900062693D463946099890472A280CD16269F4
:102DA000012109989047012506E00A214F433F1869
:102DB000303FEBD410200543626901210998904708
:102DC000014630390A2903D29B498F42DEDCECE709
:102DD000E90600D4994F6C280AD04C2810D06828F6
:102DE00024D06A282ED074280CD07A280AD00DE07E
:102DF00062690121099890476C2823D004211CE0C6
:102E0000202005436269012109989047A760656009
:102E100065284FD026DC582839D01ADC452849D0FF
:102E200012DC252834D04128B0D143E06269012169
:102E300009989047682802D008210D43E6E7012051
:102E4000C002DEE70220DCE7462833D047282CD139
:102E500030E05B2870D061282CD063286CD06428C7
:102E600023D161E06F284FD009DC662822D0672883
:102E700020D0692826D06E2817D12EE0CDE070280A
:102E80004DD073286FD075284ED078280DD154E0DE
:102E9000A1690D9888470546252800D16CE7E169AE
:102EA0000D9888476D1C00D16DE7BAE00A224CE00E
:102EB0000A2252E0012023466A46C0430D99C046CB
:102EC000C046A3E02846402108436060A807234687
:102ED00001D5002239E000223FE0E80700D020E7DA
:102EE0002068011D21600068290501D5067018E7DA
:102EF000290701D5068014E7A90703D5F117066055
:102F000041600EE706600CE72846402108436060F8
:102F1000A807234601D5082217E008221DE04849EA
:102F200028460840606016E028464021084360605B
:102F3000A8072346BCD5B9E715E028464021084339
:102F40006060A80707D5234610220120C0430D99D1
:102F5000C046C0465AE0234610220120C0430D99C6
:102F6000C046C04652E000210C910B4600916328F8
:102F700002D05B2807D043E0E80601D40120A0601E
:102F8000012000903CE062690121099890475E2889
:102F900005D101200C90014662690998904721698A
:102FA000002906D10B4601AA8F00491CD3510829DC
:102FB000FADB002835D0216900290ED1C117C90ECE
:102FC00009184A11930001AA9A1849094901411A9E
:102FD0000120136888400343136062690121099846
:102FE00090475D28E5D10C98002808D0002001AB5F
:102FF00081005A58401CD2435A500828F8DB01ABD4
:1030000001202246C0430D99FFF700FA00280ADA92
:10301000401C06D10B98002803D00020C0430FB0FD
:10302000F0BD0A98FBE7E90702D10A99491C0A9109
:10303000361800200B9074E6CCCCCC0CFFFFFF7F41
:10304000F1F7FFFFF7B582B0029C00272078641CDF
:1030500015460197302802D0002D15D015E02078B4
:103060000127641C782804D0582802D0002D09D0EC
:103070000BE0002D01D0102D07D10027102520785E
:10308000641C02E0082500E00A250026009610E0F6
:103090000099012769430818020C294680B2714340
:1030A00000908E183804864201D3012001902078C8
:1030B000641C294600F019F80028E9DA0398002872
:1030C00005D0002F01D0641E00E0029C046001982E
:1030D000002806D014F09AFD02210160C81E05B038
:1030E000F0BD009930040843F9E73A2800D230389F
:1030F000202302469A43412A01D31046373888429A
:1031000001D30020C043704770B58C180578401C6F
:103110006B075B0F01D10378401C2A1106D102789E
:10312000401C03E006780E70401C491C5B1EF9D160
:103130002B0705D40023521E0DD40B70491CFAE74F
:103140000378401CCB1A921C03E01D780D70491CBB
:103150005B1C521EF9D5A142D8D3002070BD0000DF
:1031600008B501200023112204210090174805F022
:1031700075FB01200023112208210090134805F05F
:103180006DFB01210320C00307F03AF9002007F08E
:10319000A9F9202007F068F90021802007F0B4F990
:1031A0000021FF20013007F0AFF900210320C00209
:1031B00007F0BAF900210320400307F0B5F92020F9
:1031C00007F048F9402007F045F908BD0016014016
:1031D000F7B587B0034609981D782D065E7836044A
:1031E00075409E7836027540DE78754006687540F9
:1031F00006951D792D065E79360475409E79360256
:103200007540DE7975404668754005951D7A2D0636
:103210005E7A360475409E7A36027540DE7A7540D5
:103220008668754004951D7B2D065E7B36047540CF
:103230009E7B36027540DE7B7540C66875400395FF
:10324000F02509982D586D10009500BF069D2D0E94
:10325000AD00B64E7559039E3602360EB600B44F19
:10326000BE597540049E3604360EB600B14FBE59A5
:103270007540059E3606B60DAF4FBE5975402A46BD
:1032800006697240059D2D0EAD00A84E7559069E2B
:103290003602360EB600A64FBE597540039E360460
:1032A000360EB600A34FBE597540049E3606B60DC5
:1032B000A14FBE5975402C4646697440049D2D0EA1
:1032C000AD009A4E7559059E3602360EB600984FDF
:1032D000BE597540069E3604360EB600954FBE594F
:1032E0007540039E3606B60D934FBE5975408669EC
:1032F00075400295039D2D0EAD008C4E7559049EB0
:103300003602360EB6008A4FBE597540059E360409
:10331000360EB600874FBE597540069E3606B60D6E
:10332000854FBE597540C669754001952030009D96
:103330006D1E0095002D00D168E0150EAD007B4E8E
:103340007559019E3602360EB600794FBE5975404A
:10335000029E3604360EB600764FBE5975402606DC
:10336000B60D754FBE597540066875400695250E19
:10337000AD006E4E75591602360EB6006C4FBE5932
:103380007540019E3604360EB6006A4FBE59754030
:10339000029E3606B60D684FBE59754046687540A8
:1033A0000595029D2D0EAD00604E75592602360E14
:1033B000B6005F4FBE5975401604360EB6005D4F1D
:1033C000BE597540019E3606B60D5B4FBE5975401D
:1033D000866875400495019D2D0EAD00534E7559BC
:1033E000029E3602360EB600514FBE597540260475
:1033F000360EB6004F4FBE5975401606B60D4E4FED
:10340000BE597540C668754003951FE700BF150E8D
:103410004A4E755D2D06019E3602360E474FBE5D43
:1034200036047540029E3604360EBE5D3602754087
:10343000E6B2BE5D7540066875400695069D2D0E88
:103440000D70069D2D022D0E4D70069D2D042D0E26
:103450008D70069DCD70250E3E46755D2D061602BB
:10346000360EBE5D36047540019E3604360EBE5DD6
:1034700036027540029EF6B2BE5D754046687540E4
:103480000595059D2D0E0D71059D2D022E0E4E717B
:10349000059D2D042E0E8E71059DCD71029D2D0E64
:1034A0003E46755D2D062602360EBE5D360475401D
:1034B0001604360EBE5D36027540019EF6B2BE5D44
:1034C0007540866875400495049D2D0E0D72049D0F
:1034D0002D022E0E4E72049D2D042E0E8E72049D12
:1034E000CD72019D2D0E3E46755D2D06029E360263
:1034F000360EBE5D360475402604360EBE5D3602BD
:103500007540D6B2BE5D7540C66875400395039D93
:103510002D0E0D73039D2D022E0E4E73039D2D0453
:103520002E0E8E73039DCD730AB0F0BD0CDB01002F
:103530000CDF01000CE301000CE701000CEB0100C3
:10354000F7B587B0034609981D782D065E783604D6
:1035500075409E7836027540DE7875400668754085
:1035600006951D792D065E79360475409E793602E2
:103570007540DE7975404668754005951D7A2D06C3
:103580005E7A360475409E7A36027540DE7A754062
:103590008668754004951D7B2D065E7B360475405C
:1035A0009E7B36027540DE7B7540C668754003958C
:1035B000F02509982D586D10009500BF069D2D0E21
:1035C000AD00CE4E7559059E3602360EB600CC4F74
:1035D000BE597540049E3604360EB600C94FBE591A
:1035E0007540039E3606B60DC74FBE5975402A4634
:1035F00006697240059D2D0EAD00C04E7559049EA2
:103600003602360EB600BE4FBE597540039E3604D4
:10361000360EB600BB4FBE597540069E3606B60D37
:10362000B94FBE5975402C4646697440049D2D0E15
:10363000AD00B24E7559039E3602360EB600B04F3D
:10364000BE597540069E3604360EB600AD4FBE59C3
:103650007540059E3606B60DAB4FBE59754086695E
:1036600075400295039D2D0EAD00A44E7559069E22
:103670003602360EB600A24FBE597540059E36047E
:10368000360EB6009F4FBE597540049E3606B60DE5
:103690009D4FBE597540C669754001952030009D0B
:1036A0006D1E0095002D00D168E0150EAD00934E03
:1036B00075592602360EB600914FBE597540029ECE
:1036C0003604360EB6008F4FBE597540019E360641
:1036D000B60D8D4FBE597540066875400695250E8E
:1036E000AD00864E7559029E3602360EB600844FE6
:1036F000BE597540019E3604360EB600814FBE5944
:1037000075401606B60D804FBE5975404668754027
:103710000595029D2D0EAD00784E7559019E36021D
:10372000360EB600764FBE5975401604360EB600FA
:10373000744FBE5975402606B60D734FBE5975407D
:10374000866875400495019D2D0EAD006B4E755930
:103750001602360EB6006A4FBE5975402604360E64
:10376000B600684FBE597540029E3606B60D664FCC
:10377000BE597540C668754003951FE700BF150E1A
:10378000AD00604E75592D0E2D062602360EB60080
:103790005D4FBE59FF273F043E407540029E3604F0
:1037A000360EB600554FBE59FF273F023E407540CA
:1037B000019E3606B60D524FBE5D754006687540D7
:1037C0000695069D2D0E0D70069D2D022D0E4D7039
:1037D000069D2D042D0E8D70069DCD70250EAD001D
:1037E000484E75592D0E2D06029E3602360EB60035
:1037F000454FBE59FF273F043E407540019E3604A9
:10380000360EB6003D4FBE59FF273F023E40754081
:103810001606B60D3A4FBE5D754046687540059573
:10382000059D2D0E0D71059D2D022E0E4E71059DCF
:103830002D042E0E8E71059DCD71029D2D0EAD00B5
:10384000304E75592D0E2D06019E3602360EB600ED
:103850002D4FBE59FF273F043E4075401604360EDB
:10386000B600264FBE59FF273F023E407540260650
:10387000B60D234FBE5D7540866875400495049D66
:103880002D0E0D72049D2D022E0E4E72049D2D04E0
:103890002E0E8E72049DCD72019D2D0EAD00194E1F
:1038A00075592D0E2D061602360EB600164FBE594E
:1038B000FF273F043E4075402604360EB6000F4FEA
:1038C000BE59FF273F023E407540029E3606B60DA8
:1038D0000B4FBE5D7540C66875400395039D2D0E68
:1038E0000D73039D2D022E0E4E73039D2D042E0E7F
:1038F0008E73039DCD730AB0F0BD00000CCB0100A8
:103900000CCF01000CD301000CD70100F7B582B039
:1039100017463A460399029800F0EEF80190019894
:10392000002802DA019805B0F0BD3C460025F020E1
:10393000C059860035E0A80020580090B0002058FB
:10394000A9006050B10000986050681C80002058A9
:103950000090701C80002158681C80002150711C50
:10396000890000986050A81C800020580090B01C6E
:1039700080002158A81C80002150B11C89000098AB
:103980006050E81C800020580090F01C80002158F6
:10399000E81C80002150F11C8900009860502D1D0A
:1039A000361FB542C7DB012595E010342068000EB4
:1039B00080004C49085C80004B4908582168090286
:1039C000090E8900474A515C8900484A51584840CD
:1039D00021880904090E8900424A515C8900444A41
:1039E00051584840217889003E4A515C8900414A3B
:1039F0005158484020606068000E80003949085CDA
:103A000080003949085861680902090E8900354A61
:103A1000515C8900354A51584840A1880904090E73
:103A20008900304A515C8900314A51584840217917
:103A300089002C4A515C89002E4A515848406060E8
:103A4000A068000E80002749085C800026490858BD
:103A5000A1680902090E8900224A515C8900234AA3
:103A60005158484021890904090E89001D4A515CBA
:103A700089001F4A51584840217A8900194A515CEF
:103A800089001C4A51584840A060E068000E800040
:103A90001449085C800014490858E1680902090EBD
:103AA0008900104A515C8900104A51584840A18948
:103AB0000904090E89000B4A515C89000C4A5158CF
:103AC0004840217B8900074A515C8900094A5158C6
:103AD0004840E0606D1CF020C059A84200DD64E75A
:103AE000002020E70CCF01000CDB01000CDF0100FF
:103AF0000CE301000CE70100F7B503460C46002576
:103B0000002B02D00298002802D10020C043FEBD45
:103B1000802C08D0C02C06D0FF200130844202D077
:103B20000120C043F3E70299802C04D10A260298B1
:103B3000803006670AE0C02C04D10C260298803041
:103B4000066703E00E2602988030066718780006A4
:103B50005E78360470409E7836027040DE787040A1
:103B60000860187900065E79360470409E79360246
:103B70007040DE7970404860187A00065E7A36043C
:103B800070409E7A36027040DE7A70408860187B02
:103B900000065E7B360470409E7B36027040DE7B02
:103BA0007040C860802C39D137E0CA681602360EE2
:103BB000B600894FBE59360E3606086870401604A6
:103BC000360EB600854FBE59FF273F043E40704079
:103BD0001606B60D824FBE59FF273F023E40704089
:103BE000160EB6007F4FBE5D7040AE007E4FBE59D0
:103BF000704008610E694868704048614E69886885
:103C0000704088618E69C8687040C861681C05464C
:103C10000A2801D100207AE71031C6E7187C000697
:103C20005E7C360470409E7C36027040DE7C7040C4
:103C30000861187D00065E7D360470409E7D360268
:103C40007040DE7D70404861C02C41D13FE04A6940
:103C50001602360EB600604FBE59360E360608689C
:103C600070401604360EB6005C4FBE59FF273F0465
:103C70003E4070401606B60D594FBE59FF273F0211
:103C80003E407040160EB600564FBE5D7040AE000E
:103C9000554FBE59704088618E6948687040C86150
:103CA000CE698868704008620E6AC86870404862D1
:103CB000681C0546082801D1002028E74E6A0869DB
:103CC000704088628E6A48697040C8621831BEE7E9
:103CD000187E00065E7E360470409E7E360270407E
:103CE000DE7E70408861187F00065E7F360470407B
:103CF0009E7F36027040DE7F7040C861FF20013039
:103D0000844266D164E0CA691602360EB600324FAC
:103D1000BE59360E3606086870401604360EB600D8
:103D20002E4FBE59FF273F043E4070401606B60D89
:103D30002B4FBE59FF273F023E407040160EB60083
:103D4000284FBE5D7040AE00274FBE5970400862DC
:103D50000E6A4868704048624E6A8868704088629F
:103D60008E6AC8687040C862681C0546072801D181
:103D70000020CCE6CA6A160EB600174FBE59360EA2
:103D80003606086970401602360EB600134FBE594B
:103D9000FF273F043E4070401604360EB600104F19
:103DA000BE59FF273F023E4070401606B60D0D4F2C
:103DB000BE5D704008630E6B4869704048634E6B8F
:103DC0008869704088638E6BC8697040C863203111
:103DD00099E700209BE600000CD301000CD70100FE
:103DE0000CCB01000CCF01000CEC0100F0B5A3B02E
:103DF00005460E4640210EA8FEF74DFA00200A9017
:103E00000B900C900D90202102A8FEF744FA2C464E
:103E10001134324621465EA009F00EFE601CFEF70A
:103E2000C3FA074610F094F9601CFEF7BDFA074686
:103E30000EF0B0FC207800287AD10EAA4821601D2F
:103E400011F084FB10220EA95B48FEF76DFA0028E2
:103E50001BD000BF5948807D002808D104F0F8FE2F
:103E60000746574B574A394657A013F06DFE00BF1F
:103E700000200121034602220091019014210DF03F
:103E800039F90020C04323B0F0BD0AAA20210EA8B2
:103E900015F0A2F810220AA902A803F09FF9202227
:103EA00016A902A8FEF740FA002834D112A80FC8BC
:103EB0001EAF0FC74D4A80211EA8FFF71DFE4B4ABB
:103EC000F43280211EA8FFF721FD01204849087027
:103ED0004848807B402108434649887300200121DF
:103EE000034602460091019014210DF003F900BF32
:103EF0003248807D00280BD104F0AAFE07461EA898
:103F00002F4B12332F4A394600903BA013F01CFE72
:103F100000BF0020B7E700BF2848807D00280BD1F4
:103F200004F096FE07468B23DB00264A394600E064
:103F30000FE03CA013F008FE00BF00200121034663
:103F400003220091019014210DF0D4F80020C04309
:103F500099E70020264908700121034604220091B8
:103F6000019014210DF0C6F800BF1448807D002890
:103F700009D104F06DFE0746114B1C33114A394636
:103F800030A013F0E1FD00BF0020C0437BE700003C
:103F9000416573496E666F48616E646C653A207264
:103FA0006563762061657320757064617465207245
:103FB00065712061636B00008B000020541D0020A0
:103FC00043040000EAC401005B58313070202573BF
:103FD0005D2025733A2825642920537973746F6B0B
:103FE000656E206572722E0A00000000782600209F
:103FF0008A000020582100205B5831307020257342
:104000005D2025733A2825642920757064617465E4
:1040100020616573204165736B65793A25732E0ABB
:10402000000000005B583130702025735D2025733F
:104030003A282564292068617368206572722E0A07
:10404000000000005B583130702025735D2025731F
:104050003A28256429207570646174652061657350
:10406000206661696C2E0A00F7B582B006461446D8
:104070001B4F3D460835402C10DD00BF1948807DA0
:10408000002808D104F0E4FD8E23174A0146019070
:1040900016A013F059FD00BF05B0F0BD1E4808F092
:1040A00077FD41212846FEF7F6F82E702246681C5F
:1040B0000399FEF7C9F8601C80B218490090887E09
:1040C000897E491CCBB215498B763B4602220421DE
:1040D0000CF0FDFD104808F029FD00BFDCE70000F2
:1040E000E4010020541D00200CBB01005B5831305E
:1040F000702025735D2025733A2825642920667772
:10410000206C656E67746820697320746F6F206C13
:104110006F6F672E0D0A000034000020D8210020A8
:1041200070B50446E579012D0FD126460836307862
:10413000002806D1A5200E4948730EA013F004FDF7
:1041400002E013A013F000FD10E0022D0ED1264670
:1041500008363078002805D1A520054948737078C5
:10416000087302E00FA013F0EFFC00BF70BD000069
:1041700058280020CAD5B5BDB0B4BCFCB0E5BFC955
:10418000D2D4C9FDBCB6B1EAD6BE0D0A000000000B
:10419000CAD5B5BDB2BBD3C3C9FDBCB6B1EAD6BEA4
:1041A0000D0A0000CAD5B5BDB2BBD3C3CFC2B7A2FA
:1041B000B9CCBCFE0D0A0000FFB583B005460E4623
:1041C000174616480290029804460834144808F02E
:1041D000DFFC002020606060A060256066602781B1
:1041E0000698A0720C2221460EA009F025FC0C2096
:1041F00000901048817E807E401CC2B20D488276BD
:10420000019101220421029B01980CF060FD0448F9
:1042100008F08CFC002007B0F0BD0000E401002095
:1042200034000020B7A2CBCDBFAACABCC9FDBCB622
:1042300000000000D821002008B501200023102232
:1042400081020090104804F009FB104810490860F2
:104250000020104948600720012181400E4A11606A
:1042600000BF022108F004FD0A480068202108432D
:1042700008490860072001218140084A116000BFF9
:1042800000200349086008BD001001405AA5000045
:1042900000F000400018014080E200E000E100E092
:1042A0003EB50020029047484088474988427DD06B
:1042B00002A806F0E7FF04460021C9438842F6D071
:1042C00040484088611E0841C007C00F002878D1CF
:1042D000012C01D0022C09D1022004E0002182002F
:1042E0003A4B9950401C0C28F8DB28E0032C03D0F3
:1042F000052C01D0062C09D1062004E00021820003
:10430000324B9950401C0C28F8DB18E0042C09D1E2
:10431000042004E0002182002C4B9950401C0C2802
:10432000F8DB0CE0072C03D100202849C86206E026
:10433000082C04D100202549C862886208626846BA
:104340000089FEF776FA0546601E204A294616F0D7
:104350003BFC1C484088611E01228A4010431949D9
:10436000488008460CF074FA401C00280ED100BFAB
:104370001748807D002808D104F06AFC0546154BDB
:10438000154A294615A013F0DFFB00BF19490D4857
:10439000001D14F0A5FA00BF0D48807D00280FD144
:1043A00004F056FC05460748408800E009E0094B48
:1043B0001B1D094A2946009401900FA013F0C4FB6D
:1043C00000BF3EBDD8050020FF0F0000900A00206E
:1043D000541D0020020400008DC101005B583130E3
:1043E000702025735D2025733A2825642920657285
:1043F000722E0A00200800205B583130702025738F
:104400005D2025733A282564292067756E20256470
:10441000206C6561726E3D25582E0A00FEB504467B
:104420000026E51CA278E11C17A009F005FB00BFDF
:104430001B48807D00280FD1681CFDF7B5FF07469B
:1044400004F006FC029068797423164A01970090E4
:1044500015A0029913F078FB00BF284602F028FD52
:10446000C6B2E6700120A070A078C11C204604F0FE
:10447000DFFCC1B2A278E01C8154A078021D214665
:1044800000200CF09FFBFEBD426C7565436F73749A
:1044900054656D706C617465446F776E0000000048
:1044A000541D002034BA01005B5831307020257350
:1044B0005D2025733A2825642920636F73745F7427
:1044C000656D706C617465206D6F64653D25642C4D
:1044D00069643D25642E0A0070B5C2B0044601AD82
:1044E0000335FF21053101A8FDF7D5FE2C701448D6
:1044F000FDF75AFF0646691CFDF760FFEE2168468E
:10450000017107214171052181718079C11C01A8C8
:1045100004F08EFCC1B268468279C01D81546846A1
:104520008079021D01A900200CF04CFB68468079BF
:10453000021D01A903A009F07FFA42B070BD00007E
:104540006D1D0020426C7565436F737454656D700A
:104550006C61746552657100F0B5C1B000AD033592
:104560000626FF2105316846FDF795FE2D48007EA1
:1045700028702C481930FDF717FF0746691CFDF716
:104580001DFF284818304079687126481830407956
:10459000022801D1042409E022481830407901287A
:1045A00004D1204818308079C000441C22461D499F
:1045B0001E31A81DFDF748FE1A4840300179A81D9C
:1045C000015518486030C08FC2B2A81D611C42540A
:1045D00014486030C08F0212A81DA11C4254E01C78
:1045E000301886B2EE21684601700621417086704F
:1045F0008078C11C684604F01BFCC1B26846827812
:10460000C01C815468468078021D694600200CF069
:10461000D9FA68468078021D694603A009F00CFAB1
:1046200041B0F0BD541D0020426C7565436F73743A
:1046300054656D706C61746555706C6F61640000D9
:1046400070B50546EC1C2078002828D10822611C92
:1046500013A009F0F1F9621C0821012013F07CF885
:104660000822611C1048FDF7EFFD0122B1218900ED
:104670000D48263803F06CFA00BF0B48801F807D80
:10468000002809D104F0E4FA0646FF23FA33074A6A
:10469000314607A013F058FA00BF0BF0E3FE70BDDF
:1046A0006964636F64653A005A1D00209ABA01007C
:1046B0005B583130702025735D2025733A282564BE
:1046C00029207265676973746572207265626F6F05
:1046D000742E0A00FEB50446E51C28780190A178E6
:1046E000284612F0E5FC0646E71C002E01D1012009
:1046F00000E000203870019878700220A070A07847
:10470000C11C204604F094FBC1B2A278E01C815485
:10471000A078021D214600200CF054FA022E14D17C
:104720000A4808F031FD00BF0948807D002809D102
:1047300004F08EFA054B7F3B064A0146009006A026
:1047400013F002FA00BF0BF08DFEFEBD2503000042
:10475000541D0020E0BA01005B58313070202573F1
:104760005D2025733A282564292073797374656D5B
:104770002077696C6C207265626F6F742E0A00007E
:10478000F0B587B0054600200690EC1C3448807BCD
:1047900020210840002814D000BF3248807D002826
:1047A00008D104F055FA06462F4B304A314630A066
:1047B00013F0CAF900BF012128460CF00DFD07B027
:1047C000F0BDA07A082833D000BF2648807D00289D
:1047D0001AD1201DFDF7E8FD06462046FDF7E4FD51
:1047E000074604F035FA0590A17A607A227A000231
:1047F00010431D4BDB1D1D4A00970296039101904B
:104800002948059913F0A0F900BF201DFDF7CCFD44
:104810000646A17A12F034FC04F018FB10498031EE
:1048200008610F48807B102108430D49887311E00F
:1048300000BF0C48807D002809D104F009FA064623
:10484000094B0C33094A314618A013F07DF900BF1B
:1048500001200690284606990CF0BEFC00BFAEE78A
:1048600058210020541D002082020000CCBA010013
:104870005B583130702025735D2025733A282564FC
:104880002920B4EDCEF32CCDE2CDF8C9FDBCB6D6CF
:10489000D02CCEDEB7A8BDF8D0D0C0B6D1C0C9FDEF
:1048A000BCB62E0A00000000A4F001005B583130B5
:1048B000702025735D2025733A28256429206677AA
:1048C0005F76657273696F6E2069732065717561BB
:1048D0006C2C63616E6E27742075706772616465FD
:1048E0002E0A0000F0B587B00446E51C2F78681C3E
:1048F000FDF75AFD069000BF3248807D002812D196
:10490000681DFDF751FD049004F0A2F9039006998B
:104910000498FF2383332C4A0097019102902B487F
:10492000039913F011F900BF681DFDF73DFD024624
:104930000490384606990BF0EFFB05900598002887
:1049400014D123480088401E2149088000BF1D481B
:10495000807D002809D104F07BF9FF2389331A4AAE
:10496000014604901BA013F0EFF80FE000BF1548BC
:10497000807D002809D104F06BF9FF238B33124AA4
:10498000014604901FA013F0DFF800BFE61C0020D2
:104990007071711C0698FDF711FD37700620A0702C
:1049A000A078C11C204604F043FAC1B2A278E01CF2
:1049B0008154A078021D214600200CF003F907B0B5
:1049C000F0BD0000541D002083BA0100FCF001007E
:1049D0001C0000205B583130702025735D2025734A
:1049E0003A282564292052656D6F76655F526563AC
:1049F0006F72644F7264657220737563636573735D
:104A00002E0A00005B583130702025735D2025731D
:104A10003A282564292052656D6F76655F5265637B
:104A20006F72644F72646572206661696C65642E92
:104A30000A00000070B50446E51C687800280FD114
:104A40000848007800280BD007480088401C064919
:104A5000088010F093FE00200449086001490870A6
:104A600070BD0000290000201C0000202000002054
:104A700070B504460D466078030013F0B8F817BB14
:104A80002029323B44BB59B3B7760DBB8B627F8381
:104A9000BBBBBBBB879FBB0000BF5748807D0028C6
:104AA00008D104F0D5F80646544B554A314655A076
:104AB00013F04AF800BF2046FFF7C2FD9AE02A46ED
:104AC00021465DA008F0B8FF20460DF057FF91E0A9
:104AD0002A4621465EA008F0AFFF204608F00AFBF8
:104AE00088E02A4621465FA008F0A6FF204600F095
:104AF000FBFA7FE02A46214662A008F09DFF20468F
:104B000000F0B4FB76E004F0A1F96549486000BF0D
:104B10003948807D002809D104F09AF80646374BC1
:104B20001533374A31465FA013F00EF800BF61E03D
:104B30002A46214668A008F07FFF204600F094F93D
:104B400058E000BF2C48807D002809D104F080F88F
:104B500006462A4B1C332A4A314667A012F0F4FF5E
:104B600000BF2046FFF75AFC44E02A46214671A0C8
:104B700008F062FF204600F067F93BE0204600F0B5
:104B8000D1FE37E0204600F08DFE33E020460BF0EA
:104B900061F92FE000BF1848807D002809D104F09A
:104BA00057F80646154B2D33154A314667A012F0CB
:104BB000CBFF00BF2046FFF73DFF1BE000BF0E48C4
:104BC000807D002809D104F043F806460B4B3133B1
:104BD0000B4A31466CA012F0B7FF00BF2046FFF72A
:104BE00081FE07E02046FFF7CBFD03E02046FFF7FC
:104BF00071FD00BF00BF70BD541D0020BD0200004C
:104C0000EFBA01005B583130702025735D202573A9
:104C10003A2825642920426C756550726F746F5074
:104C2000726F63206465762072656769737465725C
:104C30002061636B2E0A0000426C756550726F74C0
:104C40006F50726F63207368616B652072657100CD
:104C5000426C756550726F746F50726F632061752E
:104C600074680000426C756550726F746F50726F9B
:104C700063207374617274206368617267696E6720
:104C800000000000426C756550726F746F50726F57
:104C9000632073746F70206368617267696E670068
:104CA000CC0100205B583130702025735D202573C6
:104CB0003A2825642920426C756550726F746F50D4
:104CC000726F63206865617274206265617420612F
:104CD000636B2E0A00000000426C756550726F74A1
:104CE0006F50726F632072657120636F73742074EC
:104CF000656D706C617465005B5831307020257390
:104D00005D2025733A2825642920426C7565507210
:104D10006F746F50726F6320636F73742074656D6E
:104D2000706C61746520646F776E6C6F61642E0ABD
:104D300000000000426C756550726F746F50726FA6
:104D4000632072657120627265616B005B5831305F
:104D5000702025735D2025733A2825642920426C34
:104D6000756550726F746F50726F632075706C6FE1
:104D7000616420686973746F7279206F7264657200
:104D80002061636B2E0A00005B5831307020257360
:104D90005D2025733A2825642920426C7565507280
:104DA0006F746F50726F63206F7264657220656EEE
:104DB000737572652E0A000010B5C2B0FF2105316F
:104DC00001A8FDF768FA01AC0334142214A12046AF
:104DD000FDF73AFA102120460830FDF75CFA0C2264
:104DE00015A120460830FDF72FFAEE216846017123
:104DF0000B214171182181718079C11C01A804F037
:104E000017F8C1B268468279C01D8154684680791E
:104E1000021D01A900200BF0D5FE42B010BD00001C
:104E20004445564943455F434841524745525F43D5
:104E30004C5F584100000000393238363938343977
:104E4000343834380000000010B50446002006F065
:104E500006FD00200349087008F072F81D200BF0D1
:104E600009FD10BDCC01002070B50446E51C681C8E
:104E7000FDF79AFA06460748FDF796FA864207D0EC
:104E80000448FDF791FA002802D02878FFF764FB68
:104E900070BD00006D1D0020F0B595B0402102A846
:104EA000FDF7F9F902ACE71CFD1C0020019003F0AE
:104EB00095FF387003F0CAFE323078700C20B8705D
:104EC000012630E02E70701E6E214843254940189F
:104ED00001900198807800280ED001206870F0B20F
:104EE00003F04AFF80B200900098FF2801DBFF200A
:104EF00000E00098A87014E00020687012A9304605
:104F000003F02CFF10A8007A002806D106F0E8F97B
:104F1000002806D00320687003E06878A87002209B
:104F20006870ED1C761C0C2ECCDDEE202070052068
:104F300060702720A070A078C11C204603F078FF85
:104F4000C1B2A278E01C8154A078021D2146002045
:104F50000BF038FEA078021D214603A008F06CFD7E
:104F600015B0F0BDD80C0020426C756553656E64B9
:104F7000486561727442656174000000FFB583B0DA
:104F800004460E461746E51C701E6E21484319491B
:104F9000401802902E706F700698A870002F08D1EC
:104FA00002984B30FDF700FAE91C0190FDF706FA74
:104FB00003E0E91C0020FDF701FA0021E9712972E4
:104FC0000920A070A078C11C204603F031FFC1B2B7
:104FD000A278E01C8154A078021D214600200BF02D
:104FE000F1FDA078021D214603A008F025FD07B0C1
:104FF000F0BD0000D80C0020426C756553656E64EE
:1050000053746172744368617267696E6741636B60
:1050100000000000F7B582B004460F46E51C781E7C
:105020006E214843294946181320A0702F70049818
:10503000687003F00BFFA91C0190FDF7BFF9304623
:1050400062304179027908021043A871000AE871C0
:105050005C20805D287230464B30FDF7A5F929466B
:1050600009310190FDF7AAF900216973A97330464F
:105070004330417D027D08021043E873000A287422
:10508000314662314A780B781102194308460A21E9
:10509000FDF780F881B26974090AA974A078C11C6F
:1050A000204603F0C5FEC1B2A278E01C8154A0786E
:1050B000021D214600200BF085FDA078021D21462F
:1050C00003A008F0B9FC05B0F0BD0000D80C00202A
:1050D000426C756553656E6453746F70436861729A
:1050E00067696E6741636B00FEB50746FC1C267856
:1050F000701E6E2148434049401801900198807805
:10510000002815D00A22611C3C48FDF70DF9002843
:105110000ED00A22611C01981830FDF705F900280D
:1051200006D100231A4631463846FFF727FFFEBD59
:1051300001F082FB002815D000BF3148807D002897
:1051400008D103F085FDAE232E4A014600902EA023
:1051500012F0FAFC00BFEBB2012231463846FFF7ED
:105160000DFFE4E7304601F0CDFB051E15D000BF72
:105170002348807D002808D103F06AFDB523214A29
:10518000014600902CA012F0DFFC00BFEBB2012220
:1051900031463846FFF7F2FEC9E7617B227B090200
:1051A000114308466421FCF7F5FFC1B22E48017691
:1051B000E17A20388172E17B2030C176607C217CED
:1051C0000002084328498883084620384672A07B9D
:1051D0000090607B227B000210430146631C224A40
:1051E0000E3A02200EF0DAFA00231A46314638460B
:1051F000FFF7C4FE00BF9AE7D80C002017C50100D6
:10520000541D002049BA01005B58313070202573CD
:105210005D2025733A2825642920486973746F72CC
:10522000794F726465724E756D20697320746F20BA
:105230006D616E792E0A00005B5831307020257345
:105240005D2025733A282564292063616C6C204316
:105250006865636B5374617274506172612066613A
:10526000696C2E0A00000000D8210020F8B506461F
:10527000F41C2078401E6E2148433249451820789E
:10528000002802D020780C2816DD00BF2E48807D33
:1052900000280AD103F0DCFC07462078E1232B4AE2
:1052A000394600902AA012F04FFC00BF217801225D
:1052B0003046FFF7AFFEF8BD6878002814D100BF74
:1052C0002148807D002808D103F0C2FC0746E7236F
:1052D0001E4A394627A012F037FC00BF2178002271
:1052E0003046FFF797FEE6E70A2229461831601C90
:1052F000FDF71AF8002814D000BF1348807D00285D
:1053000008D103F0A5FC0746ED23104A394622A038
:1053100012F01AFC00BF217801223046FFF77AFE16
:10532000C9E716215C20415506215D2041552078B2
:105330000EF0C8FB217800223046FFF76BFE00BF5D
:10534000B9E70000D80C0020541D00205BBA010012
:105350005B583130702025735D2025733A28256411
:105360002920706F72743D25642C6572726F722EE5
:105370000A0000005B583130702025735D202573D2
:105380003A282564292067756E2069732069646C4A
:10539000652C6572722E0A005B58313070202573BF
:1053A0005D2025733A28256429206F726465722078
:1053B000697320646966662C6572722E0A000000AB
:1053C00010B503F043FD04460748007800280AD1D1
:1053D00006484069201AE1218900884203D907F074
:1053E000AFFD0248446110BDCC01002058210020CF
:1053F000F0B5D7B00446FF21053116A8FCF74BFFE6
:10540000442105A8FCF747FF217A68460176A17A76
:10541000607A0902014368464176090A817620468E
:105420003D30FCF7C1FF054612A90131FCF7C6FF6C
:10543000A17B68468177217801750A2221462331B4
:105440002F30FCF701FF6178684641751022214634
:105450000F311F30FCF7F8FE2046413041790079CA
:105460000902014310A84174090A817420463530AD
:10547000FCF79AFF054610A90131FCF79FFF204673
:105480003930FCF791FF054611A90131FCF796FF71
:1054900020462D30FCF788FF05460EA90131FCF7A8
:1054A0008DFFE1786846C17520463130FCF77CFFFE
:1054B00005460FA90131FCF781FF607B227B0102C9
:1054C000114368468183E17AC17620464130FCF77A
:1054D0006BFF054613A90131FCF770FF412205A9B6
:1054E00016A80330FCF7B0FEEE2110A801760D21BE
:1054F000417641218176807EC11C16A803F098FC7C
:10550000C1B210A8827E1B3081546846007D1749C5
:10551000087010A8807E021D16A900200BF052FB17
:1055200000BF1348807D00281DD120463D30FCF788
:105530003BFF054620463130FCF736FF0646204645
:105540002D30FCF731FF074603F082FB04902078F2
:10555000FF235933074A01970296039500900648A6
:10556000049912F0F1FA00BF57B0F0BD29000020F5
:10557000541D00206CBA010048F0010010B5FB205A
:10558000C00204F0A1FE0822FB21C902024804F077
:1055900065FE002010BD00000000002010B50FF0D7
:1055A000A1F80FF07DF811F03DFF00201C490860C4
:1055B0001C4848600DF024FEFF20F53015F0E4FB98
:1055C000194812F0C1FA0FF0B5F806F0D7FD06F051
:1055D000FFFCFDF7C5FD0BF035F805F053FA06F0BA
:1055E0001DFE00F015FD04F075FB0BF05DFA07F0F1
:1055F0004FFE05F0AFF800BF0C48807D002809D1B0
:1056000003F026FB0446FF231333094A214609A071
:1056100012F09AFA00BF0F4812F096FA10BD00007F
:10562000280100205AA5000084EF0100541D00202D
:1056300016BA01005B583130702025735D20257348
:105640003A2825642920427370496E6974204F4BB3
:105650002E0A0000E8EF0100F8B50446E0790128C1
:1056600024D1254608352878002809D1012142484F
:1056700081730122B1218900803802F069FA02E0C9
:10568000732007F039FD00BF3B486038807D00285B
:105690000AD103F0DDFA06462878384B384A3146FD
:1056A000009038A012F050FA00BF64E0E0790328BF
:1056B00041D1254608352878002828D100261DE04C
:1056C000E81C815D384802F087F9002802D1701C7F
:1056D00086B213E000BF28486038807D002809D1D9
:1056E00003F0B6FA07464B231B01254A39462FA083
:1056F00012F02AFA00BF022015F046FBA9786A785A
:1057000008021043B042DBDC06F0EEFC12E000BF02
:1057100019486038807D00280BD103F099FA0646BD
:1057200028789723DB00164A3146009027A012F014
:105730000BFA00BF1FE0E07904281CD100202B49A0
:105740000870254608352878002813D000BF0A487D
:105750006038807D002809D103F07AFA0646074BAD
:105760002733074A314622A012F0EEF900BF742019
:1057700007F0C2FC00BFF8BDB41D00209E0400006D
:105780005ABC01005B583130702025735D202573B1
:105790003A2825642920736574206274206E616D37
:1057A000653D25642E0A0000D40100205B5831308D
:1057B000702025735D2025733A28256429206274A2
:1057C0002062756666206F662E0A00005B583130D5
:1057D000702025735D2025733A282564292074796B
:1057E00070653D25642C6572722E0A003100002020
:1057F0005B583130702025735D2025733A2825646D
:1058000029206274207478206661696C2E0A000079
:10581000F8B50446E51C681CFCF7C6FDC7B238465F
:105820000FF044FB0646F1B220460BF039FAF8BD02
:10583000F8B50446E51C681CFCF7B6FDC7B20122AA
:10584000B42138460FF0D8FD0646F1B220460BF0E1
:1058500027FAF8BD70B50446E61C701CFCF7A4FDE1
:10586000C5B228460CF038FE002120460BF018FA8D
:1058700070BD10B50446002120460BF011FA0AF065
:10588000F1FD10BD70B50446E61C701CFCF78CFDE4
:10589000C5B228460CF060FD002120460BF000FA4E
:1058A00070BD000010B504460822E11C14A008F0E9
:1058B000C3F8E21C0821012011F04EFF0822E11C70
:1058C0001748FCF7C1FC0122B12189001448263891
:1058D00002F03EF90120A0700020E070A078C11C09
:1058E000204603F0A5FAC1B2A278E01C8154A0784A
:1058F000021D214600200BF065F90AF0B3FD10BD32
:105900004274536574436861726765724465766971
:1059100063654964206465766963654964000000D5
:105920005A1D002070B5044600250822E11C29A05C
:1059300008F082F803F066FA002803D103F002F8B9
:10594000002801DD01252FE00822E11C2748FCF793
:10595000EBFC002828D0E21C0821002011F0FCFEFE
:10596000A521C9002248FCF796FC0122A521C90007
:105970001F4802F0D3F80822E11C1C48FCF764FC25
:1059800008211A480830FCF786FC184A083208211A
:10599000012011F0E1FE15491B310020FCF70EFD3E
:1059A00011F040FA01F048FA0120A070E570A078EB
:1059B000C11C204603F03CFAC1B2A278E01C81541D
:1059C000A078021D214600200BF0FCF80AF04AFDE9
:1059D00070BD0000427453657443686172676572FC
:1059E000536E2073657420736E000000521D0020FA
:1059F000D80C0020F8B50546EC1C00BF1648807D89
:105A000000280ED1601CFCF7CFFC064603F020F9FD
:105A1000074609239B01114A394611A0009612F04E
:105A200093F800BF601CFCF7BFFC1749884203D9FC
:105A3000601CFCF7B9FC00E0134881B206486030F6
:105A400081830122B1218900803802F081F8002190
:105A500028460BF025F9F8BD541D0020ADBA010011
:105A60005B583130702025735D2025733A282564FA
:105A700029206368617267696E6746756C6C54694A
:105A80006D653D25642E0A008C0A0000F8B50446B9
:105A9000E51C00BF0E48807D00280DD1681CFCF776
:105AA00083FC064603F0D4F807460A4B0A4A3946F7
:105AB0000AA0009612F048F800BF681CFCF774FCBE
:105AC00006460CF0A9FD002120460BF0E9F8F8BDD0
:105AD000541D00204B020000BBBA01005B5831305E
:105AE000702025735D2025733A282564292070676E
:105AF00073743D25642E0A007CB50446002C01D049
:105B0000022000E001200546002C10D000BF1948FB
:105B1000807D00280AD103F09BF80646FF23EE3370
:105B2000154A314615A0009412F00EF800BF1D482A
:105B3000807BA0421AD005F0D3FB002816D119486B
:105B4000C07B0A280EDA00200346032212210095AA
:105B500001900BF0CFFA1348C07B401CC1B2114832
:105B6000C17303E00F4884730021C1730E48447071
:105B70007CBD0000541D00201ABB01005B58313071
:105B8000702025735D2025733A28256429206274CE
:105B9000207374617475733D25642C6572722E0ACE
:105BA00000000000B82100204203002070B5C2B000
:105BB000044600203E903F9040904190A648007AD5
:105BC000012812D103F042F9A4490968401A0F28AC
:105BD00001D9012000E00020002806D003F036F9AA
:105BE0009E49086000219C480172E07901287DD11E
:105BF00000200BF019F9254608352878012815D121
:105C000000219548017000220221954808F08EFC81
:105C100001219148017203F019F9904908608E48FA
:105C20000079F02188438C490871A0E02878022887
:105C3000FBD101AA80218BA0FDF75EFF0422691C25
:105C40003EA8FCF701FB04223EA98AA007F0F4FE5F
:105C500001AA8A493EA8FDF773FC0622874988A05D
:105C600007F0EAFE7C480079F02188437A49087100
:105C70000846007800280FD003F0E8F8764920396C
:105C8000496E401A0F2807D87348007801283DD183
:105C90000FF00AFF012839D100BF7C48807D002821
:105CA00008D102F0D5FF0646794B7A4A31467AA0F0
:105CB00011F04AFF00BF68482038406A03210902FA
:105CC000884365492039486200216348017003F028
:105CD000BDF861492039486601220221674808F071
:105CE00025FC062265495C483C3000E040E0FCF7BA
:105CF000ABFA59482038406A0321090388435649C2
:105D00002039486209215448417230E052480078F5
:105D100005282CD100BF5D48807D002809D102F004
:105D200097FF06465A4B0D335A4A314662A011F08E
:105D30000BFF00BF48482038406A0321090288430E
:105D40004549203948620821434801700122022157
:105D50004A4808F0EBFB40482038406A0321090319
:105D600088433D492039486209213B48417270E02F
:105D7000E079022851D1254608353748007A0128B4
:105D800023D1287800281CD100BF4048807D0028FE
:105D900009D102F05DFF06463D4B1F333D4A3146B7
:105DA0004DA011F0D1FE00BF204606F089FE2A4822
:105DB0002038406A03210902884327492039486274
:105DC0002AE005F09DFA42B070BD287800281FD166
:105DD00000BF2E48807D002809D102F039FF064619
:105DE0002B4B2D332B4A31463BA011F0ADFE00BFAB
:105DF00019482038808C8005800F012803D1204667
:105E000001F04AFC03E0204600F076F800BF03E012
:105E10001A4807F025FBD6E71BE0E079032818D1E4
:105E2000204611F0E5FC03F011F80B4920394866D3
:105E30000021094801700079000900010649087134
:105E400008462038406A0321090288430249203964
:105E5000486200BFB7E7000078210020440000201E
:105E60003C000020636861726765726C696E6B311B
:105E700032333400706879536E3A0000C704002052
:105E800063617264206B6579413A0000541D002003
:105E90004504000049BC01005B5831307020257377
:105EA0005D2025733A2825642920B5DA31B4CECB9C
:105EB000A2BFA82E0A0000005B5831307020257365
:105EC0005D2025733A2825642920B5DA32B4CECB7B
:105ED000A2BFA82E0A0000005B5831307020257345
:105EE0005D2025733A2825642920B6C1BFA8B3C90F
:105EF000B9A62E0A00000000F8B50446254608356C
:105F00006E1C3148808C8004800F00280DD12E48F3
:105F1000406A0321090388430121090340182A49E3
:105F20004862317828482030817227482030807AB2
:105F300011281CD100BF2548807D002808D102F01F
:105F400087FE0746224B234A394623A011F0FCFD69
:105F500000BF00F099FB002803D0CE2007F0CCF85A
:105F6000F8BD19495C31204608F0ECFC2AE01648DF
:105F70002030807A12281ED11348406A0321090379
:105F800088431149486200210F482030017000BF4A
:105F90000E48807D002809D102F05AFE07460C4BBE
:105FA0000C330C4A394613A011F0CEFD00BF204639
:105FB00008F03AFA06E00448406A032109028843DF
:105FC0000149486200BFCBE758210020541D002042
:105FD0000904000038BC01005B5831307020257383
:105FE0005D2025733A2825642920D6A7B8B6BFA816
:105FF0002E0A00005B583130702025735D20257318
:106000003A2825642920BCF8C8A8BFA82E0A000099
:1060100000B591B04022164901A804F00FF93E21C5
:1060200001A802F0E1FE10A9498888421AD0382060
:106030000190012108A88170C170FF212D316846AF
:1060400081840C49C1843E2101A802F0CDFE81B2B9
:1060500010A84180064804F037F94022044901A8FD
:1060600004F0FCF801A808F09FFD11B000BD00008D
:1060700000DC07008C0A0000F0B591B00024002677
:1060800000200D90012513E1681E6E2148438D49C3
:106090004418681E602148438B4946180EA92846BB
:1060A00002F05CFEA07800287ED008A8007E0028C0
:1060B0003CD008A8007EC007C00F002806D00A21E7
:1060C0005C20015501215D20015510E008A8007EEB
:1060D00004210840002801D0132100E012215C2097
:1060E0000155015D5D2001553B200AF0C3FB00BF57
:1060F0007648807D00280CD102F0AAFD074608A84A
:10610000007E734B734A39460095019072A011F0DE
:106110001BFD00BF002001210091019008A90B7E0A
:10612000E8B2002212210AF0E5FF35E05C20005DB4
:106130000C2831D120465330FCF736F910998842AB
:1061400018D220465330FCF72FF91099091A20462F
:1061500062304279037910021843081881B2204650
:1061600062300171090A4171214653311098FCF7E0
:1061700025F90BE020465330FCF716F910998842B8
:1061800004D9214653311098FCF718F96A46518F0B
:10619000E8B2224603F06EFA5C20005D0C2804D0C1
:1061A000E8B20DF08FFC1BE081E070890A21FBF75B
:1061B000F1FF0D9940185549884209DB15215C20F3
:1061C000015507215D200155E8B20DF07BFC07E089
:1061D00070890A21FBF7DEFF0D99401880B20D90FF
:1061E00002F034FE3168401A3C285DD302F02EFEE6
:1061F0003060204660304178027808021043401C2D
:1062000081B2204660300170090A417000BF2F48FA
:10621000807D002847D1726831688A1A5A21895BCB
:10622000881A3C21FBF7A0FF0C9002F00FFE0746F6
:1062300020464B30FCF7B8F8381A3C210990FBF7A0
:1062400093FF0B9002F004FD0A90A2782046603084
:10625000437800781B0218430C9908950692079121
:1062600005902046623042790379100218430246B5
:1062700020464330437D077D180238436B465B8FD1
:106280000B99019303920491029020466230417869
:10629000027808021043AD239B000E4A00901C4870
:1062A0000A9911F051FC00BF0A2014F06DFD6D1C1D
:1062B0000C2D00DCE8E60449A0390D98888111B066
:1062C000F0BD0000D80C0020F8210020541D002053
:1062D00096020000C9C501005B583130702025735B
:1062E0005D2025733A28256429206661756C742029
:1062F00073746F702C67756E69643D25642C7374BC
:10630000617475733D25642E0A000000FC210000B5
:1063100000F40100F0B587B00020069000260024AC
:106320000125D1E0681E6E21484376494418A078C3
:1063300000287BD0012006902420005D022807D091
:106340002420005D012873D14620005D00286FD015
:106350006520005DC100204626300E1822466032BE
:10636000537817781A023A43737937791B023B4303
:106370005A431046F279B37912021A431146FBF7D9
:1063800009FF81B2204643300175090A4175417DFC
:10639000027D08021043214642314A7E0B7E1102E3
:1063A0001943884244DB00BF5748807D002827D12D
:1063B00002F04CFD074620464B30FBF7F5FF381A3C
:1063C0003C210390FBF7D0FE059002F041FC0490C5
:1063D00020464230427E037E100218430246204689
:1063E0004330437D007D1B0218430599474B0395BD
:1063F000019202910090464A4648049911F0A4FB8C
:1064000000BF20464230417E027E080210432146F2
:1064100043310875000A487500215C2001550321AD
:106420005D200155E8B20DF04DFB4CE04AE0FFE77E
:106430002046603041780278080210432D2109017E
:1064400088420ADC02F002FD074620464B30FBF78B
:10645000ABFF381A3049884234D9F279B379120245
:106460001A4311467279337912021A432D231B0104
:106470005A431046FBF78EFE81B220464330017529
:10648000090A41750C215C20015505215D2001554B
:1064900000BF1D48807D002810D120464B30FBF7FF
:1064A00083FF074602F0D4FBB7239B00184A01463E
:1064B00001970095059019A011F046FB00BFE8B2C6
:1064C0000DF000FB00BF6D1C0C2D00DC2AE70698C8
:1064D000002814D002F0BAFC1F490968401A4B2169
:1064E000090188420BD902F0B1FC1B490860012266
:1064F000A521C900034801F011FB10F093FC07B07F
:10650000F0BD0000D80C0020541D0020CF02000078
:10651000DAC5010024F30100805101005B583130DD
:10652000702025735D2025733A28256429206F7615
:106530006572203132682073746F702C67756E49F4
:10654000643D25642C73746172745F74696D653D7C
:1065500025642E0A000000006C000020FEB50546F0
:1065600000200090019002902548407800280FD02C
:1065700000BF2448807D002808D102F069FB064650
:10658000214B224A314622A011F0DEFA00BFFEBDA7
:10659000012D33D11B486030807B00282ED108228A
:1065A0001849891E2348FBF7BFFE002826D0052284
:1065B0001449491C684600F011FE002419E06846A1
:1065C000005D302803DB6846005D392810DD00BF20
:1065D0000C48807D002809D102F03AFB06460A4BA0
:1065E0000F330A4A314614A011F0AEFA00BFCEE7CD
:1065F000641C0A2CE3DB68460BF07CFE00BFC6E798
:1066000042030020541D00201A05000083BC010035
:106610005B583130702025735D2025733A2825643E
:106620002920C0B6D1C0D7B4CCACB2BBB6D42E0AE8
:106630000000000017C501005B5831307020257341
:106640005D2025733A2825642920736E20657272B7
:106650002E0A000010B50B48807B1021084000284E
:106660000FD002F0F3FB074980310969401AFF217E
:10667000E131884205D90348807B102188430149D4
:10668000887310BD5821002006484079012806D0A3
:1066900004484079022802D00020C04370470020FF
:1066A000FCE700006C1D00207CB502F0F9FA0446FE
:1066B0000E480079A04218D000BF0D48807D002808
:1066C0000CD102F0C5FA0546084800791C23094A96
:1066D00029460194009008A011F036FA00BF034942
:1066E0000C7120461F300AF0C5F87CBD2016002032
:1066F000541D0020E0C201005B583130702025732A
:106700005D2025733A28256429206469616C207313
:106710007769746368206368616E67652C202564FF
:10672000202D3E25642E0A007FB5044601A920468F
:1067300002F014FB002812D000BF1648807D00280C
:1067400008D102F085FA05465D23134A294613A0B5
:1067500011F0FAF900BF0020C04304B070BD6846D4
:106760000079002814D000BF0A48807D00280BD192
:1067700002F06EFA0546684600796223064A294609
:10678000009011A011F0E0F900BF0020C043E4E741
:106790000020E2E7541D002020C201005B58313088
:1067A000702025735D2025733A28256429206361B4
:1067B0006C6C2047657447756E53746174757320F3
:1067C0006661696C2E0A00005B58313070202573B9
:1067D0005D2025733A2825642920737461747573CC
:1067E0003D25642C6572726F722E0A0070B50446E6
:1067F0000D461646002C06D10D480078401C0C4969
:106800000870002070BD0A2D0FDD094801780120B5
:106810008840084909680843064908600448007828
:1068200006F06AFC0020024908700020C043E9E736
:10683000B8000020B400002010B502F0E3FA441CB8
:10684000782C01DA002010BD0020C043FBE70000D7
:106850003EB51A49C87889780002084380280BDAC7
:1068600016494878097800020843802804DA02F0C3
:10687000C9FA044678281EDD00BF1148807D002833
:1068800015D102F0E5F905460C494878097800026F
:1068900001430A4AD0789278000210433123094A12
:1068A000029401910090294607A011F04DF900BF14
:1068B0000020C0433EBD0020FCE700000012002085
:1068C000541D002051C201005B58313070202573E7
:1068D0005D2025733A2825642920775F696E6465F9
:1068E000783D25642C206F7220725F696E64657834
:1068F0003D25642C73756D3D25642C6572726F7235
:106900002E0A0000F8B50446601E6E214843454932
:1069100045180C2C01DC012C14DA00BF4248807DA4
:10692000002809D102F094F90646A5233F4A3146D2
:106930003FA0009411F008F900BF662006F0DCFBD0
:106940000520F8BDA878002814D000BF3648807D07
:10695000002809D102F07CF90646AB23334A3146C0
:106960003BA0009411F0F0F800BF0E2009F082FF68
:106970000320E6E702F064F901281BD002F060F979
:10698000022817D000BF2848807D00280CD102F0D3
:1069900057F9064602F05CF90746B223234A394606
:1069A00033A0009611F0D0F800BF682006F0A4FBD9
:1069B0000220C6E72046FFF7B7FE002813D000BF2D
:1069C0001948807D002808D102F042F90646B82314
:1069D000164A31462EA011F0B7F800BF692006F024
:1069E0008BFB0120ADE7324880893249884216DDB1
:1069F00000BF0D48807D00280BD102F029F9064622
:106A00002B488089BE23094A314600902AA011F004
:106A10009BF800BF712006F06FFB072091E7002074
:106A20008FE70000D80C0020541D00208AC301000D
:106A30005B583130702025735D2025733A2825641A
:106A4000292067756E3D25642C6572722E0A000040
:106A50005B583130702025735D2025733A282564FA
:106A6000292067756E20256420627573792E0A00CF
:106A70005B583130702025735D2025733A282564DA
:106A80002920636D3D25642C6572722E0A0000007A
:106A90005B583130702025735D2025733A282564BA
:106AA0002920636773206661696C2E0A000000006C
:106AB00058210020781E00005B583130702025736B
:106AC0005D2025733A2825642920703D25642E0A0F
:106AD0000000000010B502F0B9F910490968401A29
:106AE00078281AD90E480078012816D100BF0D4821
:106AF000807D002808D102F0ABF804461B230A4A27
:106B000021460AA011F020F800BFFF2101310F48F3
:106B100001F0BFFE00200249087010BD34010020C2
:106B200038010020541D00208CEE01005B583130EC
:106B3000702025735D2025733A2825642920706410
:106B4000207363383032342E0A00000000160140F2
:106B500010B500BF0948807D002808D102F078F800
:106B60000446074B074A214607A010F0EDFF00BF7F
:106B7000012149020B4801F08CFE10BD541D00207C
:106B80000D05000077BC01005B5831307020257383
:106B90005D2025733A2825642920434B4220706FDD
:106BA000662E0A000016014008B5012000230246A7
:106BB00041020090044801F051FE012149020248BF
:106BC00001F06BFE08BD000000160140EEB0002091
:106BD0001590002602F03AF9149002F037F90020DF
:106BE000139000270024129009F016FC18216B481E
:106BF000FBF751FBFF225F3216A96848083000F00E
:106C0000D3FE27216648FBF746FB01206449487004
:106C10006B20000313906348476DBDE0142014F00F
:106C2000B3F802F013F9A84218D002F00FF90546A4
:106C30005D485E4948601598401C15901598C0063F
:106C4000C00E002804D10120FFF788FCFFF702FDE9
:106C500007F08CFA05F0C2F90FF0FEFE07F0C2F85B
:106C600008F022F902F0F2F8014614981930814236
:106C700044D902F0EBF8149000BF4A486038807D98
:106C8000002808D101F0E4FF494B4A4A0146009030
:106C900049A010F059FF00BF4248006E5049884299
:106CA0002CD15048407B002828D13E48406D8609B1
:106CB0003C48406D8006800E002800D0761C31468E
:106CC00049A010F041FF37485430837A0289543884
:106CD000406D31460090FDF76FFA00BF31486038D3
:106CE000807D002809D101F0B3FF314B0D33314ACB
:106CF0000146009041A010F027FF00BF2948006E18
:106D00003749884248D13748407BA52844D1264896
:106D1000264948603348007BA04201D0002C36D180
:106D2000402F02D34020019001E0B8B201900198B9
:106D30003F1A02A8019A139903F080FA0199139857
:106D4000401813902748007B401CC4B21298401C86
:106D500012902448007B00902246014630A0129BEE
:106D600010F0F2FE711C129888420DD100210D48DE
:106D700001660122B1218900803800F0E9FE00207F
:106D80001849487309F06EFB00201649087302A9E0
:106D90002046019AFDF768F940E70000CC01002089
:106DA00042030020B41D00207FAA00000000014023
:106DB0006A060000B4BC01005B58313070202573B6
:106DC0005D2025733A2825642920BCECB2E2CAC7AD
:106DD000B7F1D0E8D2AAC9FDBCB60D0A0000000088
:106DE0006C5BBE5A582800207061636B616765B4A4
:106DF000F3D0A1203D2025640D0A00005B583130FE
:106E0000702025735D2025733A2825642920B7A2B8
:106E1000CBCDC9FDBCB6C7EBC7F30D0A000000001F
:106E2000696E646578203D2025642C2025642C2023
:106E300025640D0A0000000010B500200D490870FF
:106E4000487000210B488170C1701E2101F0F0FFD5
:106E500081B208488177090AC17720220146D00112
:106E600000F0E8F90349487809780002084302492C
:106E7000088010BD00120020780000200849096831
:106E8000C907490F074A50580749054A116011467A
:106E9000C96A064A1140024AD16211460860704729
:106EA00000F00040280100205AA50000DFFF00008C
:106EB000F8B504460027601CFBF776FA002814D1C9
:106EC00000BF3D48807D002808D101F0C1FE064684
:106ED0003A4B3B4A31463BA010F036FE00BFCF2074
:106EE00006F00AF90020C043F8BD6079012816D1E8
:106EF000A61D3078042804DDCB2006F0FDF801271C
:106F00000CE03078C000451C2A4631462A481E3025
:106F1000FBF79AF9012128481830417125E0607982
:106F200002280CD1A61D04250422314622481E3019
:106F3000FBF78AF9022120481830417115E000BFA3
:106F40001D48807D00280BD101F082FE0646607945
:106F5000B5239B001A4A3146009022A010F0F4FDA0
:106F600000BFCD2006F0C8F80127002F22D1A01DB8
:106F7000415D114840300171A01D691C405CA11D9C
:106F8000AA1C895C090208430B496031C887601C50
:106F9000FBF70AFA064608491931FBF70FFA217880
:106FA000054801760122B1218900203800F0D0FD8A
:106FB0000BF078FD384697E7541D0020BF02000013
:106FC000D8C301005B583130702025735D202573D4
:106FD0003A282564292069643D302C6572722E0A96
:106FE000000000005B583130702025735D20257350
:106FF0003A28256429206D6F64653D25642C6572EF
:10700000722E0A00F8B50446254611352846FFF7CA
:107010004FFF06462A78F1B2E37BA77B1B023B4376
:10702000184609F097FFF8BD10B5064840790128C9
:1070300006D004484079022802D000200AF0B4FBB0
:1070400010BD00006C1D002010B5002417E00E4894
:1070500000882041C007C00F00280ED0E2000B4B73
:10706000D2189188E200985801F013FC0120A0404A
:1070700005490988814304480180601CC4B2024864
:1070800000880028E3D110BDD8000020C0C1010055
:1070900010B5002417E00E4800882041C007C00F3B
:1070A00000280ED0E2000B4BD2189188E2009858CD
:1070B00001F0F3FB0120A040054909888143044801
:1070C0000180601CC4B2024800880028E3D110BDD2
:1070D000D6000020C0C10100F8B507460C46154691
:1070E0000026144B2A462146384600F03BF8002083
:1070F00004E0215C8919CEB2411CC8B2691E8142EC
:10710000F7DC681E205CB04201D10020F8BD00BF52
:107110000948807D002808D101F09AFD074B084AF4
:107120000146009007A010F00FFD00BF0020C043F3
:10713000ECE700006C270020541D0020290400000B
:10714000D1C401005B583130702025735D20257358
:107150003A28256429206373206572726F722E0AA3
:1071600000000000FCB505460E4614461F462046AA
:10717000E117090F09180905090E01910020009077
:107180000DE03A4631462846FCF722F80748084900
:107190004860103510360098401CC0B2009001992C
:1071A00000988842EDDB0020FCBD00007FAA0000B3
:1071B00000000140014609E0002004E000BF00BFDC
:1071C00000BF00BF401C044A9042F7D30A464B1E42
:1071D000D9B2002AF0D170478A020000F7B582B018
:1071E0000C461546274600260CE0002001903A7810
:1071F0007F1C06A101A810F0B7FC01A90298FBF7BB
:1072000055F8761CAE42F0DB05B0F0BD2530327883
:1072100000000000F8B505460E461746002406E0BB
:1072200029193019012210F044FF601C84B2BC42BD
:10723000F6DBF8BD70B504460D46164632462946C3
:10724000204610F043FF70BD10B5174C012000031D
:1072500002F0DCFF012802D1000302F0C3FF10207E
:1072600002F0A8FF012802D1102002F091FF0121B5
:1072700049020E4801F003FB002813D160780A2868
:1072800010D12089401C20810020E0706070A07027
:10729000012020703421032005F0C6FEA0790121D1
:1072A0000DF0E8FC10BD0000182D0020001001407A
:1072B00010B5012189020B4801F0E1FA002810D134
:1072C00009480088002806D00120084908703E209F
:1072D0000CF0E8FB05E00020044908702D200CF0BC
:1072E000E1FB10BD00100140D6000020DB000020B3
:1072F00010B50120400302F089FF012802D14003AC
:1073000002F070FF202002F055FF012802D120205A
:1073100002F03EFFFFF7CCFF10BD000010B50120CA
:10732000800302F073FF012802D1800302F05AFFAC
:10733000402002F03FFF012802D1402002F028FF48
:1073400001200149087010BDF400002010B5294C3F
:107350000120000602F05AFF012802D1000602F0C7
:1073600041FF0120000402F025FF012802D10004A2
:1073700002F00EFF0120400602F048FF012802D172
:10738000400602F02FFF0120400402F013FF012805
:1073900002D1400402F0FCFE0120800602F036FF1C
:1073A000012802D1800602F01DFF0120800402F0B6
:1073B00001FF012802D1800402F0EAFE08210E48F4
:1073C00001F05DFA002813D160780A2810D12089D5
:1073D000401C20810020E0706070A07001202070AF
:1073E0003421002005F020FEA07901210DF042FC9F
:1073F00010BD0000F82C002000170140F8B505462C
:107400000E46174600240CE03A463146284610F056
:107410005DFE002800D1F8BD7D20C00013F0B4FC53
:10742000641C042CF0DB0020C043F4E770B5002599
:1074300001240FE0E0000949451809496868FBF795
:10744000FCF80646FBF7FCF90C216143054A891854
:107450008860641C0D2CEDDB002070BD800B0020CB
:1074600000C8AF48E80B002038B54921C9002A48B8
:1074700000F01AFB91218900274801F0D9FC84B261
:10748000254800882549884203D125488088A042A4
:107490001ED000BF2348807D002808D101F0D8FB12
:1074A0000546214B214A294621A010F04DFB00BF83
:1074B0001A4819490880002048800922920124496D
:1074C0001548001DFAF7C0FE134809F0C1F90FE096
:1074D00000BF1448807D002809D101F0B9FB0546A2
:1074E000114B9B1D114A29461AA010F02DFB00BF1D
:1074F00000BF0C48807D00280CD101F0A9FB054697
:1075000005484088084B0833084A2946009019A0CE
:1075100010F01AFB00BF38BDD8050020AA550000A6
:1075200018080020541D00201C0400009DC101000B
:107530005B583130702025735D2025733A2825640F
:107540002920666972737420696E69742E0A0000BE
:1075500028BF01005B583130702025735D202573F2
:107560003A28256429207365636F6E6420696E690B
:10757000742E0A005B583130702025735D2025730E
:107580003A2825642920663D25582E0A000000006F
:107590007CB50546A6223221284602F0E9FC2022CD
:1075A0007521284602F0E4FC01AA7521284602F064
:1075B00019FC01AA3021284602F014FC401C0028C6
:1075C00025D06846007901046846407900020843E6
:1075D000694689790843044600BF0E48807D00282B
:1075E0000CD101F035FB06462046022108430A4B28
:1075F0000A4A314600900AA010F0A6FA00BF022005
:10760000204382B23021284602F0B2FC7CBD00202B
:10761000C043FBE7541D002033040000ABC1010050
:107620005B583130702025735D2025733A2825641E
:107630002920456E61626C655A584945207265671C
:107640003D25580D0A000000FCB505460E461446BF
:107650001F462046E117090F09180905090E019177
:10766000002000900DE03A4631462846FBF768FFBF
:10767000074808494860103510360098401CC0B2D1
:107680000090019900988842EDDB0020FCBD0000CD
:107690007FAA000000000140F8B5044625460835E1
:1076A0006E1C3D48808C8004800F00280DD13A4824
:1076B000406A032109038843012109034018364920
:1076C0004862317834482030817233482030807AE3
:1076D00011281DD100BF3148807D002809D101F05B
:1076E000B7FA0746E5239B002D4A39462DA010F036
:1076F0002BFA00BFFEF7C8FF002803D0CE2005F00C
:10770000FBFCF8BD24495C31204600F075F840E0F0
:1077100021482030807A122825D11F48406A032151
:10772000090388431C49486200211B48203001702E
:1077300000BF1A48807D002809D101F089FA074668
:107740001D235B01164A39461DA010F0FDF900BF4C
:10775000204606F069FE1048406A0321090288436A
:107760000D49486215E000BF0C48807D002808D113
:1077700001F06EFA0746194B094A394618A010F075
:10778000E3F900BF0448406A032109028843024923
:10779000486200BFB5E7000058210020541D0020BA
:1077A000DCBB01005B583130702025735D202573F0
:1077B0003A2825642920D6A7B8B6BFA82E0A00000B
:1077C0005B583130702025735D2025733A2825647D
:1077D0002920BCF8C8A8BFA82E0A0000A6030000F4
:1077E0005B583130702025735D2025733A2825645D
:1077F00029206572720A0000FEB505460E462C4629
:107800000834671C601C029000BF3248807D00284D
:107810000BD101F01DFA01902F48407A2F4B304ACE
:10782000009030A0019910F08FF900BF2A48407AEB
:107830002D281ED0302817D0312847D100BF254829
:10784000807D002809D101F003FA244B1B1D244A36
:10785000014601902AA010F077F900BF0A223146B4
:10786000384606F0ABFF32E00A21029806F0CCFE63
:107870002DE01022611C29A006F0DEF80A2215492D
:10788000A031601CFAF750FD002816D000BF114847
:10789000807D002809D101F0DBF9104B1033104A2C
:1078A0000146019020A010F04FF900BF0A2008F017
:1078B000E1FF002108480170FEBD302106484172F9
:1078C00000220C21304606F031FE00E000BF00BF70
:1078D00000BFF1E7541D00207821002016030000AE
:1078E000A7BB01005B583130702025735D202573E4
:1078F0003A2825642920626C6F636B3D25640A0079
:107900005B583130702025735D2025733A2825643B
:107910002920B6C1BFE934390A000000BFE9343577
:10792000CAFDBEDD000000005B58313070202573B9
:107930005D2025733A28256429206F706E206973B5
:1079400020646966210A0000014600BF00BF0029CB
:10795000FDD000BF08897047014600BF00BF002965
:10796000FDD000BF00200881488188818880704751
:10797000024690895389984213D05089431C538101
:1079800013681B5C0B70D0885389984201DC00207F
:1079900050811089002802D01089401E10810020DB
:1079A00070470020C043FBE7034600BF00BF002B29
:1079B000FDD000BF00BF00BF0029FDD000BF00BF49
:1079C00000BF002AFDD000BF0020186058609860FA
:1079D000D8601960DA80704710B502460B4690896E
:1079E0005489A04204DB90895489001B411C05E0A6
:1079F0009089D48800195489001B411CD088884282
:107A00000FDD9089441C9481146823541089401C14
:107A10001081D0889489A04201DC00209081002050
:107A200010BD9088401C90800020C043F8E710B53E
:107A3000002406E0A1026D22D202881802F044FC64
:107A4000641CD22CF6D310BD10B5002406E0A102B0
:107A50006B221203881802F037FC641CFF20EF3001
:107A60008442F4D310BDF0B505460E4617460024F7
:107A700006E031192819012202F0E0FB601C84B2F3
:107A8000BC42F6DBF0BD70B505460E46002407E0AB
:107A900029190122D202A018012210F00AFB641C4D
:107AA000B442F5D3002070BD70B505460E460024E3
:107AB00007E0291905229202A018012210F0F9FA14
:107AC000641CB442F5D3002070BD70B505460E4667
